:100000000C94C8010C940F020C940F020C940F0274
:100010000C940F020C940F020C940F020C940F021C
:100020000C940F020C940F020C94F51D0C94C91E35
:100030000C94BA170C940F020C940F020C940F023C
:100040000C940F020C940F020C940F020C940F02EC
:100050000C940F020C9411180C940F020C940F02C4
:100060000C940F020C940F020C940F020C940F02CC
:100070000C940F020C940F020C940F020C940F02BC
:100080000C940F020C940F020C940F020C940F02AC
:100090000C940F020C940F020C940F020C940F029C
:1000A0000C940F020C940F020C940F02165C1E00AD
:1000B0001F0020002100220023002400250026002C
:1000C00027002D002B0014001A000800150017004F
:1000D0001C0018000C00120013002E002A0004005F
:1000E0001600070009000A000B000D000E000F00AB
:1000F000330034002C001D001B0006001900050011
:10010000110010003600370038002800E341E000FD
:10011000E100E20000000000000000004C412C0063
:1001200065422B0035001E021F022002210222021E
:10013000230224022502260227022A003A003B005D
:100140003C003D003E003F004000410042004300B3
:1001500044004500A9004A00F100ED00F200F9005A
:100160004B0052004E00760030000100AA004D0006
:10017000EF00EE00F000FA00500051004F002F0099
:100180003100010001000100010001000000000039
:10019000000000000100010001000100005CA60059
:1001A000A7000100A500010023002400250026006F
:1001B00027002A003500B600B700B4007E00010019
:1001C00001000100AF00B300540055004C00B20024
:1001D0000100010001000100010001000100010017
:1001E0000100010001000100010001000100010007
:1001F00001000100010001000100010001000100F7
:10020000E10001000000000000000000010001000A
:10021000010063001C0350007400650072006F0051
:100220006E00350036002000760030002E003200CF
:10023000000014034D006F006F00720065004B005A
:1002400065007900730000000403090409023B0003
:10025000020100A0FA0904000001030101000921C4
:10026000110100012240000705810308000A09046A
:100270000100010300000009211101000122B60064
:100280000705820320000A1201100100000008ED9A
:10029000FE606001000102000105010902A1018563
:1002A000020901A100050919012908150025019578
:1002B00008750181020501093009311581257F95F5
:1002C000027508810609381581257F950175088119
:1002D00006050C0A38021581257F950175088106EF
:1002E000C0C005010980A101850319012AB70015C5
:1002F0000126B700950175108100C0050C0901A108
:1003000001850419012AA002150126A00295017594
:10031000108100C005010906A1018505050719E046
:1003200029E71500250195087501810205071900C7
:1003300029EF1500250195F07501810205081901C5
:100340002905950575019102950175039101C00577
:10035000010906A101050719E029E7150025019506
:1003600008750181029501750881010507190029A9
:10037000FF150026FF009506750881000508190184
:100380002905950575019102950175039101C0003C
:1003900011241FBECFEFDAE0DEBFCDBF04B603FEEF
:1003A00027C08091900290919102A0919202B09109
:1003B00093028730904BA740B04BD1F4109290023B
:1003C00010929102109292021092930214BE84B77E
:1003D000877F84BF0FB6F894A895809160008861EC
:1003E00080936000109260000FBEE0E0F8E3099592
:1003F00011E0A0E0B1E0EAE2F2E402C005900D9263
:10040000A838B107D9F722E0A8E8B1E001C01D92F1
:10041000A039B207E1F70E942F1B0C94EB200C943B
:1004200000000895089581E0089581E008950C94F6
:10043000130208950C9419021F93CF93DF9300D0F9
:1004400000D00F92CDB7DEB749835A836B833091CA
:10045000B70189819A8131111DC06623B9F0222329
:10046000A9F00E94B014182F682F89819A810E94E8
:100470005C1469817A81812F0F900F900F900F90FB
:100480000F90DF91CF911F910C94CC020E948814A1
:10049000182FEFCF0E94B01469817A81EDCFFC0153
:1004A000262F408151816281738184810C941C02CA
:1004B000CF93DF93EC0160E00E944F02BE01DF9119
:1004C000CF910C941A020E94F615811102C00E946D
:1004D000A4160C94D7040C94D90408950E94C60F56
:1004E0000E946D022FEF84E39CE0215080409040F9
:1004F000E1F700C000000C9435180F931F93CF93C1
:10050000DF93EC0161E00E944F028C01BE010E946A
:100510001702882329F1BE01C8010E941C09882303
:10052000F9F0BE01C8010E946E098823C9F0BE011E
:10053000C8010E94910A882399F08A81882339F0A2
:1005400001158CE5180751F00F3D1C4579F0CE01DF
:10055000DF91CF911F910F910C9415020E946E02B2
:1005600080E0DF91CF911F910F9108950E94A41612
:10057000F7CF08950C94B90281E008950C94BC0261
:10058000CF93C82F0E94BA028C2FCF910C94BE0239
:1005900090E080E008950895972F70E02CE0929FFE
:1005A000600D711D1124FB019CE3899FE00DF11D7D
:1005B0001124EE0FFF1FE455FF4F8591949108958C
:1005C000FC01EE0FFF1FEC5EFD4F859194910895A5
:1005D000CF93DF930E94CC020E94FD03EC018115B2
:1005E00020E5920708F042C0811530E4930708F037
:1005F000BDC0883E910528F5803E910508F09DC05C
:10060000883A910588F4853A910508F08FC08130C9
:10061000910509F492C0009709F48FC0049708F07F
:100620008CC0D0E0C0E089C08F3B910508F489C040
:10063000805C9109C03CD105A0F30E94E002EC016E
:100640007CC08115904250F4C11581E0D80708F0B4
:1006500074C0CD3ED10528F3D0656FC0C11590E3BD
:10066000D90708F079C0CE019F70E7CF811525E545
:10067000920758F5811534E5930708F0A6C0811557
:1006800042E5940750F4C11581E5D80708F471C01C
:10069000DC2FCC27C16FD06A50C0982F96959695C5
:1006A0009E0123703327C115D34508F07FC0C1E0F8
:1006B000D0E002C0CC0FDD1F2A95E2F720E2929F26
:1006C000C0011124C82BD92B6FC0C11589E5D807EB
:1006D000A8F4C11598E5D90708F07CC0C11526E536
:1006E000D20708F09ECF8C2F0E949404C82FD0E030
:1006F000DC2FCC27CC27DF71D0621FC0C1153AE5B3
:10070000D30708F46CC0CE0190568115904208F0D2
:1007100088CF8D2F8F710E94940490E0982F8827A6
:1007200088279F719C012C2BE901E6CFC55AD0E0A8
:10073000CD5BDE4FC881D0E0D064CE01DF91CF9198
:100740000895C85AD0E0CC0FDD1FCB5EDE4F099074
:10075000D881C02DD464F1CFCE019927D3FF03C037
:10076000EC01D86CEACFEC01D06CE7CFDF70D06A37
:10077000E4CFCE01E4E096958795EA95E1F78370A2
:100780002C2F26952695237090E2299F9001112405
:10079000382B8C2F8370C1E0D0E002C0CC0FDD1F5E
:1007A0008A95E2F7C22BD32BDC68C7CFC1E0D0E03B
:1007B00002C0CC0FDD1F2A95E2F730E2939FC00103
:1007C0001124C82BD92BDA68B8CFD82FCC27C46F07
:1007D000D06AB3CFDC2FCC27C06FD06AAECF8C2FBE
:1007E0008F700E94940434E0D695C7953A95E1F74E
:1007F000CF709C2FEC01D069A0CF82389105B1F168
:10080000B0F48133910509F475C048F4893291053B
:1008100009F469C08A32910509F473C008958533DB
:10082000910509F459C08933910501F10895833E7A
:100830009105A9F138F4803E9105F9F0823E9105C9
:1008400049F10895863E9105A9F1873E9105C9F1C8
:10085000843E910519F52091820221FF1FC08091ED
:10086000810284FD14C087EE90E0089520918102FA
:100870002370A1F080EE90E008952091810220FD88
:1008800047C03091820230FF09C024FF44C090E08D
:1008900080E004C02091810222FDF7CF08952091CD
:1008A000810222FD3BC03091820230FDE3CF24FF64
:1008B000F5CFEDCF2091810223FFF0CF24FDE7CFCC
:1008C000D2CF2091810223FD2CC03091820231FFD2
:1008D000EECF84EE90E008952091810225FFDECFD7
:1008E00089E290E008952091810225FFD7CF85E32A
:1008F00090E008952091810226FFD0CF8AE290E017
:1009000008952091810226FFC9CF81E390E00895E8
:1009100089E390E0089583EE90E0089582EE90E000
:10092000089586EE90E008959091810292FF06C0AE
:10093000282F28712830F9F4877F846093FF06C040
:10094000282F28712831F1F4877E8461209182025A
:1009500020FF06C0382F38713830D9F4877F816086
:1009600021FF06C0282F28712831D1F4877E8161AC
:1009700094FD877E0895282F24712430F9F68B7F0B
:100980008860DCCF282F2471243101F78B7E8861A9
:10099000DDCF382F3171313019F78E7F8860E0CF8D
:1009A000282F2171213121F78E7E8861E1CF0C94AF
:1009B00011020C941202E82FF0E0EE0FFF1FED5829
:1009C000FD4F808191810895089580EA8A95F1F71D
:1009D000089500C008950C94E504F894E82FE2957A
:1009E000EF70F0E031A1282F2F7081E090E001C07E
:1009F000880F2A95EAF7982F9095932391A392A1B7
:100A0000892B82A3789408950F931F93CF93DF933C
:100A1000C6E4D1E002E511E089910E94ED040C17D3
:100A20001D07D1F783E90E94ED0482E90E94ED04DD
:100A300084EF0E94ED0484E90E94ED0485E30E94A6
:100A4000ED0410926A0210926902109274021092E0
:100A5000730210926C0210926B0210927602109246
:100A6000750210926E0210926D021092780210922E
:100A700077021092700210926F0210927A02109216
:100A80007902109272021092710210927C021092FE
:100A90007B0285E00E94EB05DF91CF911F910F91C2
:100AA0000C9463026F927F929F92AF92BF92CF920B
:100AB000DF92EF92FF920F931F93CF93DF9396E411
:100AC000E92E91E0F92ED0E0C0E010E0CC24C394F0
:100AD000D12C33E7A32E32E0B32ED7018D917D01C7
:100AE000F894E82FE295EF70F0E021A18F70A60155
:100AF00002C0440F551F8A95E2F7CA01922F982B26
:100B000091A392A18095892382A378940E94E904FD
:100B1000A6010C2E02C0440F551F0A94E2F7BA0139
:100B200060957095E9E6F2E082E5682E81E0782E26
:100B300000E021913191D3019D903D01892D829555
:100B40008F7090E0DC0190968C9190E0B92DBF7091
:100B500002C095958795BA95E2F780FD38C0C90126
:100B6000842B952B2817390739F09F012250310922
:100B7000D9018D939C9301E0AE16BF06D1F6F70123
:100B8000319780810E94ED04CB3011F00E94EB047C
:100B9000102B2196CC30D10509F09FCF212F45E0B5
:100BA00063E772E089E692E00E94EC050E946B0226
:100BB000812FDF91CF911F910F91FF90EF90DF90E8
:100BC000CF90BF90AF909F907F906F900895C90194
:100BD00086239723C7CF0895FF920F931F93CF9338
:100BE000DF93F82E092F162FD72FC42F222349F079
:100BF00081E080938C010E94EA1790938B0180938F
:100C00008A0180918C018823A1F080918A019091C2
:100C10008B010E940218069760F0EF2DF02FA12F94
:100C2000BD2F90E080E0D0E08C179D0744F010923B
:100C30008C01DF91CF911F910F91FF900895219129
:100C400031912D933D930196EFCF8091930180FFD9
:100C500012C06091050185E0689FB001112475956F
:100C600067957595679560387105A8F561157105EB
:100C7000A1F1862F089581FF09C06091050185E0EB
:100C8000689FB001112475956795EDCF60910501BE
:100C900082FD0AC0809192018823D1F090910401D5
:100CA00060910501891728F085E0689FB001112443
:100CB000DACF869FB001112485E0869F9001879F3F
:100CC000300D1124692F70E0C9010E947B20CBCF29
:100CD00065E070E0CECF8FE7089581E008958091C0
:100CE000930180FF0CC06091010170E075956795DC
:100CF000759567956115710549F1862F089581FFF6
:100D000006C06091010170E075956795F3CF609121
:100D1000010182FD0BC0909191019923A1F0609196
:100D2000000180910101961738F0682F70E060385B
:100D3000710500F38FE70895899FC001112470E0C9
:100D40000E947B20F4CF61E070E0D7CF81E008956E
:100D50008D3E31F40E942506819580939701089578
:100D60008E3E19F40E942506F8CF8F3E31F40E9482
:100D700025068195809396010895803F19F40E947D
:100D80002506F8CF893F29F40E946F0680939801C9
:100D900008958A3F21F40E946F068195F7CF8B3F1B
:100DA00031F40E946F0681958093990108958C3FDC
:100DB00019F40E946F06F8CF9FE0980F983070F4F6
:100DC000815F990B21E030E001C0220F8A95EAF79C
:100DD00080919501822B8093950108958D3F31F488
:100DE0008091930181608093930108958E3F21F457
:100DF000809193018260F7CF8F3FB9F78091930183
:100E00008460F1CF409196018D3E59F48091970115
:100E100087FF0DC01092970141110BC010929201F3
:100E200008C08E3E81F48091970118169CF34423EC
:100E300081F08091980190919901892B09F05AC015
:100E40001092910108958F3E49F447FFF0CF109220
:100E50009601809197018111ECCFE0CF803F19F48A
:100E60001416ACF3E4CF90919801893F29F4191638
:100E7000F4F610929801DBCF8A3F19F497FFD7CF91
:100E8000F8CF909199018B3F29F497FFD0CF109222
:100E90009901CDCF8C3F19F41916CCF3C8CF9FE040
:100EA000980F983090F4815F990B21E030E0B90100
:100EB00002C0660F771F8A95E2F7CB01809590916B
:100EC0009501892380939501B2CF8D3F31F48091B4
:100ED00093018E7F80939301AACF8E3F21F480915E
:100EE00093018D7FF7CF8F3F09F0A1CF80919301C0
:100EF0008B7FF0CF08950E94EA179C019091960194
:100F000080919701982B21F03093900120938F01CD
:100F10009091980180919901982B21F030938E0146
:100F200020938D0184E991E00C94E60AEF92FF9200
:100F30000F931F93CF93DF9300D000D000D0CDB795
:100F4000DEB786E0E4E9F1E0DE01119601900D9252
:100F50008A95E1F7E0909601F09097010091980151
:100F60001091990110929601109297011092980198
:100F7000109299018E2D8F2991F080918F0190917F
:100F800090010E940218AC0190919201992309F4FA
:100F90003FC0809106018417150608F447C0802FD2
:100FA000812B91F080918D0190918E010E94021809
:100FB000AC0190919101992309F477C080910201CD
:100FC0008417150608F47FC08091960190919701CF
:100FD000892B90919801892B90919901892B11F07F
:100FE0000E947B0786E0FE013196A4E9B1E0019002
:100FF0000D928A95E1F726960FB6F894DEBF0FBEE4
:10100000CDBFDF91CF911F910F91FF90EF90089589
:10101000209107018AE0289F9001112424173507A9
:1010200008F0BDCF9F5F9093920102C09F3FD1F720
:10103000EE2059F00E9425069FEF1E140CF491E05B
:10104000899F802D112480939601FF2059F00E94E2
:1010500025069FEF1F140CF491E0899F802D112429
:101060008093970130919601332309F498CF209112
:101070009701222309F493CF45EB3403C0011124D7
:10108000992359F09093960145EB24039001112484
:10109000332339F03093970182CF81E0809396011A
:1010A000F3CF81E0809397017ACF209103018AE00A
:1010B000289F900111242417350708F085CF9F5FE2
:1010C0009093910102C09F3FD1F7002359F00E94F5
:1010D0006F069FEF10160CF491E0899F802D11246C
:1010E00080939801112359F00E946F069FEF11160B
:1010F0000CF491E0899F802D112480939901309107
:101100009801332309F460CF20919901222309F437
:101110005BCF45EB3403C0011124992359F0909320
:10112000980145EB240390011124332339F03093C7
:1011300099014ACF81E080939801F3CF81E08093B9
:10114000990142CF86E0E4E9F1E0DF011D928A9542
:10115000E9F7109292011092910110929301089573
:101160000F931F93CF93DF93C42FD22FFC01828163
:101170008823C9F040939C010E94EA1790939B0139
:1011800080939A0180E28C0F883008F050C0C770BD
:1011900081E001C0880FCA95EAF7DF91CF911F91D6
:1011A0000F910C944D0D10919C01141335C080913A
:1011B0009A0190919B010E940218883C910560F56C
:1011C000C0E2CD0F1D17B9F080E2810F883040F4E6
:1011D000177081E001C0880F1A95EAF70E94540D3C
:1011E000C83048F481E09D2F977001C0880F9A9510
:1011F000EAF70E944D0D802F0E94450DC830B8F4CB
:10120000D77081E001C0880FDA95EAF7DF91CF91BE
:101210001F910F910C94540D80E28C0F883038F49C
:10122000C77081E001C0880FCA95EAF7EFCFDF9160
:10123000CF911F910F9108950F939C01CB01243FF3
:101240004CE5340759F1A8F4293DFCE53F0701F1CD
:101250002A3D4CE53407D1F1283D3C4591F406E2A6
:1012600021EE41EE68ED7CE50E94B00880E00F9130
:101270000895263FFCE53F07E9F0B0F0273F3C45E5
:10128000F9F0FC018281882339F110929C01EFCFA3
:1012900007E225EE45EE69ED7CE5E6CF06E221EEBC
:1012A00040EE64EF7CE5E0CF07E225EE44EE65EF2B
:1012B0007CE5DACF06E221EE42EE66EF7CE5D4CFA4
:1012C00007E225EE46EE67EF7CE5CECF08E221E0AF
:1012D00045EE6AED7CE5C8CF81E0C9CFCF93DF93BF
:1012E000EC01FB018281882309F419C1C230FCE5BD
:1012F000DF07C0F1C6319CE5D90730F09E012B5FB6
:101300003C452930310570F50E94131690938202F6
:1013100080938102C031ECE5DE0709F4CFC008F00C
:101320005BC0C8308CE5D80709F4B6C088F5C43076
:10133000ECE5DE0709F4A8C0C0F4C2308CE5D8079C
:1013400009F49CC0809181028260C330DC4509F4BD
:1013500098C080918102909182020E9421160E9481
:10136000C60F80E0DF91CF91089580918102806166
:10137000C630ECE5DE0709F484C080918102886004
:10138000C730DC4508F47DC080918102806279C05D
:10139000CC308CE5D80709F489C070F480918102C3
:1013A0008C60CA30ECE5DE0709F46BC008F478C045
:1013B000809181028E7F65C0CE308CE5D80709F41C
:1013C00079C0809181028B7FCF30DC4508F459C011
:1013D000809181028F7E55C0CC3FECE5DE0709F499
:1013E00057C030F5C3318CE5D80709F46FC078F4E5
:1013F000C131ECE5DE0709F465C0C231DC4509F016
:10140000A8CF0E94C60F809181028F773AC0C53164
:101410008CE5D80709F462C008F476C08091820296
:101420008160CB3FDC4509F094CF8093820291CF5D
:10143000C115FDE5DF0709F44DC088F480918202F3
:101440008D7FCE3F9CE5D90781F3809182028E7F0C
:10145000CF3FDC4550F3809182028360E6CFC230FB
:10146000FDE5DF0709F459C008F444C080E0C3304B
:10147000DD4509F06ECF0E94A6166BCF80918102E8
:1014800081608093810265CF809181028460F9CF71
:10149000809182028260C9CF809181028064F1CF05
:1014A0000E94C60F809181028068EBCF80918102FB
:1014B0008D7FE7CF80918102877FE3CF809181028A
:1014C0008F7DDFCF809181028F7BDBCF8091810286
:1014D000837FD7CF809182028C7FA7CF80918102BA
:1014E00082FB992790F921E0922790FB82F990FBEB
:1014F00083F9C7CF80918202982F909591708E7F4B
:10150000892B90FB81F991CF0E94C60F90918102A7
:10151000892F97FB87F98058B4CF81E0ACCF81E069
:1015200021CFCF93DF93EB0186319C4511F50E94CB
:1015300045159A81992399F08A7A91E009F490E00F
:1015400090939D01811109C089E20E9420150E949B
:10155000911580E0DF91CF91089585E3F6CF8091DA
:101560009D01811104C089E20E942715F0CF85E317
:10157000FBCF81E0EFCF9093A3018093A201089568
:10158000E091A201F091A301309721F00190F08148
:10159000E02D099480E00895E091A201F091A3016B
:1015A000309799F020911401222359F02091810263
:1015B00027FF07C0DC012C9111962C93119725E091
:1015C0002C930280F381E02D09940895E091A2010B
:1015D000F091A301309739F022E0DC012C930480D4
:1015E000F581E02D099408952091A0013091A10189
:1015F0002817390771F09093A1018093A001E09121
:10160000A201F091A301309721F00680F781E02D2F
:101610000994089520919E0130919F012817390760
:1016200071F090939F0180939E01E091A201F0914F
:10163000A301309721F00084F185E02D09940895ED
:101640000E94F6176093B3017093B4018093B501C3
:101650009093B6016093AF017093B0018093B10194
:101660009093B201089585B7806885BF85B780687B
:1016700085BF0895089508950C943A0B08950C942D
:101680003E0B0E94330B84EF95E10E9446180E94A6
:101690003B0B0C943C0B81E008950C944B0B08958C
:1016A00008950E94E1170E9404050E9496180C9468
:1016B0003F0B8F929F92AF92BF92CF92DF92EF92A9
:1016C000FF920F931F93CF93DF93CDB7DEB72A9787
:1016D0000FB6F894DEBF0FBECDBF0E944F0B0E9425
:1016E000500B0E94520581110E94200B55EA852E55
:1016F00051E0952E10E000E0A02E802F0E94DB0428
:101700006C01F401E190F1904F01E816F90609F43B
:101710005CC08091450281FD0E94E404C7018C25D4
:101720009D25B12CEE24E394F12C9C012E213F2128
:10173000232B09F444C00E944D0B8823A9F0BE82DC
:10174000AF82CE20DF2081E0CD2809F480E08887B9
:101750000E94EA178160782F9A8789874E815F817E
:1017600068858A850E940F0C000F111FF801EB5548
:10177000FE4F80819181E826F926F182E0820E9465
:1017800096070E94C00A9091A4018917A9F10E94AE
:10179000C00A8093A4012A960FB6F894DEBF0FBE4C
:1017A000CDBFDF91CF911F910F91FF90EF90DF9010
:1017B000CF90BF90AF909F908F900C94C002B39445
:1017C000EE0CFF1CFCE0BF12B0CF0F5F1F4F0530C7
:1017D000110509F091CF8FEF89838A831B820E94C4
:1017E000EA178160782F9D838C8349815A816B81B0
:1017F0008D810E940F0CC3CF2A960FB6F894DEBFDE
:101800000FBECDBFDF91CF911F910F91FF90EF9051
:10181000DF90CF90BF90AF909F908F900895DF9210
:10182000EF92FF920F931F93CF93DF93CDB7DEB765
:101830002B970FB6F894DEBF0FBECDBF7A878B878C
:10184000F42E052F162FE72ED82E61110E94651554
:101850001E821D827E2DEC82DD824F2D502F612F46
:101860008D2D9E812B960FB6F894DEBF0FBECDBF97
:10187000DF91CF911F910F91FF90EF90DF900C942B
:101880003C12FC01808191810C94F214CF93C82FFB
:10189000882309F48BC08238C1F40E94C00A81FDFC
:1018A00085C089E30E9420150E9491152FEF81EEDB
:1018B00094E0215080409040E1F700C0000089E3AF
:1018C0000E942715CF910C9491158338A1F40E94A2
:1018D000C00A80FD6BC083E50E9420150E9491150F
:1018E0002FEF81EE94E0215080409040E1F700C05E
:1018F000000083E5E5CF8438A1F40E94C00A82FD90
:1019000055C087E40E9420150E9491152FEF81EEAB
:1019100094E0215080409040E1F700C0000087E44F
:10192000CFCF8CEF8C0F813A90F46C2F809108010F
:10193000909109010E94BF16882329F08C2F0E94E4
:1019400027150E9491158C2F0E942015BBCF80E295
:101950008C0F883048F4C77081E001C0880FCA95A9
:10196000EAF70E944815AECFEBE5EC0FE33040F408
:10197000F0E0EB57FE4F808190E0CF910C94F40A99
:10198000E8E5EC0FE73150F4F0E0EE0FFF1FE95A05
:10199000FE4F80819181CF910C940A0BCD3E30F0A7
:1019A0008C2F0E94A806CF910C947B07CF910895AD
:1019B000882309F452C0823871F40E94C00A81FF62
:1019C0004CC089E30E9420150E94911589E30E9472
:1019D00027150C949115833859F40E94C00A80FF92
:1019E0003CC083E50E9420150E94911583E5EFCF4E
:1019F000843859F40E94C00A82FF2FC087E40E94F5
:101A000020150E94911587E4E2CF9CEF980F913A40
:101A1000F0F290E2980F983050F4877091E001C096
:101A2000990F8A95EAF7892F0E944E15D2CF9BE530
:101A3000980F933020F490E080E00C94F40A98E53D
:101A4000980F973120F490E080E00C940A0B8D3EC3
:101A500020F00E9402070C947B0708951F93CF93F8
:101A6000DF93182FEB010E94460C209731F4812F51
:101A7000DF91CF911F910C94D80C8FE99FE00197D3
:101A8000F1F700C000002197F0CF70E060E08933EB
:101A900011F460E570E00C942E0D882321F00E9473
:101AA00048150C9491150895882321F00E944E1535
:101AB0000C9491150895BF92CF92DF92EF92FF920E
:101AC0000F931F93CF93DF936C01D62FC72FFC0189
:101AD0001281058102950F700E943E15E82E882321
:101AE000A1F0E12E112389F08C2F807F803429F022
:101AF00080E28D0FE12C883040F082E00E94DC15FE
:101B00000E943E1591E0E82EE926BC2EB2949FE09B
:101B1000B922EB2DF0E0E351FF4D0C948F200C2FF8
:101B20000F70C07F11F00295007F1123A9F00023F0
:101B300059F080E28D0F883010F0D11109C0802F4C
:101B40000E9448150E9491158D2F0E94460C14C0CA
:101B5000802F0E945815F6CF8D2F0E94D80C00239D
:101B600059F080E28D0F883010F0D1112CC0802FF9
:101B70000E944E150E9491152B2D2850330B2430B6
:101B8000310520F40E94C00A0E94C002EE2009F430
:101B90009EC10E943A1580FD9AC1F60112820E94F0
:101BA00034150E94C013C6010E94880F0E9434158C
:101BB000DF91CF911F910F91FF90EF90DF90CF9029
:101BC000BF900C94E113802F0E945E15D3CFFC2FA1
:101BD000FF70FF2EC07FC03219F0F29480EFF82220
:101BE000DD2369F0D13049F1112391F1002351F146
:101BF000F601858180FFA8CF8F70858323C01123D4
:101C000081F0011106C00E9478158F290E944D0DA8
:101C1000B3CF0130C1F70E9478158F290E947E153D
:101C2000ABCF011106C00E9487158F2D0E94540D65
:101C3000A3CF013009F4A0CFF6CF112329F006304D
:101C400008F09ACF8F2DE2CF053008F095CFEDCF79
:101C5000002359F3D93349F4FFEF27EE33E0F15075
:101C600020403040E1F700C000008D2F0E94D80CCA
:101C700083CF8C2F86958695837069F0813009F02B
:101C80007BCF8D2F9C2F9370111102C090E080E0CC
:101C90000E940A0B71CF8D2F9C2F9370111102C0DF
:101CA00090E080E00E94F40A67CF8D2F112329F085
:101CB0000E94A8060E947B075FCF0E940207FACF0E
:101CC0008C2F837009F041C0111156CF4D2F4295D2
:101CD00046954770440F440F0D2F0F7010E030E011
:101CE00020E0042E04C0000F111F221F331F0A948E
:101CF000D2F760E070E0CB01D4FF0FC06FE070E07E
:101D000080E090E004C0660F771F881F991F4A95F6
:101D1000D2F76095709580959095C695C695C370DD
:101D2000602B712B822B932BC23049F058F4C130B9
:101D300019F00E94721320CF0E9460131DCF0E94E1
:101D400084131ACF0E945E1317CF8695112311F0CA
:101D50008C2F8170882309F40FCF4D2F4295469523
:101D60004770440F440F0D2F0F7010E030E020E05B
:101D7000042E04C0000F111F221F331F0A94D2F734
:101D800060E070E0CB01D4FF0FC06FE070E080E056
:101D900090E004C0660F771F881F991F4A95D2F7FD
:101DA0006095709580959095C695C695C370602B8B
:101DB000712B822B932BC23049F058F4C13019F0AB
:101DC0000E943714D9CE0E942514D6CE0E94491401
:101DD000D3CE0E949A13D0CECF70112329F08C2F2E
:101DE0000E94C0138D2F12CF8D2F0E94540D8C2F67
:101DF0000E94E113C1CED23F89F160F4D03FC9F017
:101E0000D13F29F1112309F442C001119DCE8C2F3D
:101E10008F7121C0D33F39F1D43FA1F7112369F16C
:101E2000CF718C2F0E94C01363E08C2F0E94C715C6
:101E3000A3CE112341F0053008F09ECE8C2F8F7178
:101E40000E94041499CE063008F096CEF7CF8C2F5E
:101E50008F71112369F20E94C0138ECE8C2F8F7167
:101E60001123C9F3C5CF112329F08C2F8F710E9444
:101E7000AB1382CE0E94A6137FCE81E00E94DC15B8
:101E8000023008F479CE82E00E94DC1575CE002382
:101E900059F0D93309F0E9CE8FEF97EEE3E08150A6
:101EA0009040E040E1F7DFCE8C2F8F71A1CF4C2F17
:101EB0004F706D2FC6010E94C8020E94D6125CCEE0
:101EC0004C2F4F706D2FC6010E94CB0255CEDF9173
:101ED000CF911F910F91FF90EF90DF90CF90BF9027
:101EE00008950F931F93CF93DF93EC01688179815D
:101EF0008A810E94FC148C010E945B140E945D1375
:101F0000B801CE01DF91CF911F910F910C945B0D21
:101F1000CF93DF93EC018B819C81892B29F0888101
:101F2000998189238F3F59F4DF91CF910895CE0194
:101F30000E94710FCE01DF91CF910C945802CE0117
:101F40000E947D028111F3CF0E943E15882361F328
:101F50008A81882349F382E0DF91CF910C94DC15CC
:101F600090E080E00E94F40A90E080E00E940A0B7A
:101F70000E9465150E9475150E9491150E94A20885
:101F80000C947B070E942E150C94B00F0E945515DF
:101F90000C94C20FE92FE295EF70E250EE3070F42E
:101FA000F0E0E350FF4D0C948F20803F19F020F4B7
:101FB000883E20F481E00895843FE1F380E00895B5
:101FC000883EC0F3813FD1F7F5CF93FB882780F996
:101FD00008950E94F2140C94CA0FCF93DF9300D09F
:101FE00000D00F92CDB7DEB70F900F900F900F90EB
:101FF0000F90DF91CF910895CF93DF9300D000D061
:1020000000D0CDB7DEB726960FB6F894DEBF0FBE70
:10201000CDBFDF91CF9108951F93CF93DF93C091F0
:10202000B80116E08091B9018C1304C0DF91CF9103
:102030001F910895D0E01C9FF0011D9FF00D112409
:10204000E654FE4F40815181628173818481958184
:102050000E94FC0F2196C770E5CF4091EA01509194
:10206000EB016091EC017091ED018091EE01909196
:10207000EF010C94FC0F1F93CF93DF938091EF013E
:10208000807FA9F48091EC01882389F08091B801C8
:10209000C091B9016091EA017091EB01A091ED014D
:1020A000B091EE01D62FD72316E0C81304C0DF91FC
:1020B000CF911F91089590E0109711F0DF3F19F430
:1020C00001968770F2CF189F9001199F300D11244F
:1020D000F901E654FE4F41814713F2CF4081461388
:1020E000EFCF42814111ECCF438154814A1B5B0BFE
:1020F000483C510528F78091EF018F7080618093F3
:10210000EF01F901E154FE4F80818F70806180837F
:102110008AEE91E00E94880FDF91CF911F910C947D
:102120000C10AF92BF92CF92DF92EF92FF920F937B
:102130001F93CF93DF93CDB7DEB761970FB6F894B7
:10214000DEBF0FBECDBF8C0185E0F801DE011D961C
:1021500001900D928A95E1F7F80140815181E2806A
:102160008AEEC82E81E0D82E6091ED017091EE01CB
:102170006115710509F461C19091EA012091EB01AB
:10218000892F82238F3F09F458C1A380B480F09037
:10219000EC01F501E61BF70BFF2009F4FCC0809170
:1021A000EF01382F307FE83CF10508F0B2C0311163
:1021B00079C0FE2C251323C0941321C0E1101FC049
:1021C0008F7080618093EF010E942D10C6010E94E4
:1021D000880F8091EF01F80185838F2D61960FB6EE
:1021E000F894DEBF0FBECDBFDF91CF911F910F914D
:1021F000FF90EF90DF90CF90BF90AF900895AB2805
:1022000029F0842F85238F3F09F033C180E0F82F18
:10221000F170DF2E80FF3CC08091B8012091B901A0
:1022200036E0821315C04D875E878D859E850E949E
:10223000F214292F22952F702230F0F0243018F557
:102240009F70F1F0F8019581907FD1F4D12C1EC0E0
:1022500090E0389FF001399FF00D1124E654FE4FB5
:102260006181651306C06081641303C062816E11D1
:102270000FC001968770D5CF9F7011F0882331F37E
:10228000805E883018F3C8010E94880FFD2CA5CF0E
:10229000EE2009F4A2CF8091EF0181608093EF01DD
:1022A000F12C9BCF251306C0941304C0F801EE2037
:1022B00009F48DC04D875E878D859E850E94E90F4C
:1022C000882319F1EE2009F18091EF01803270F03E
:1022D0002091EA013091EB0138872F831986BB8664
:1022E000AA868C87CE0107960E94880F86E0F801A7
:1022F000AAEEB1E001900D928A95E1F70E943B10A1
:102300000E942D10FF24F39468CFC8010E94880F0B
:10231000F9CF311113C07A2DB98AA88A6E2D898917
:102320000E94ED0F8AEE91E00E94880F86E0F60190
:1023300011928A95E9F70E942D10B2CF25130FC094
:1023400094130DC0E1100BC0F8018583C8010E94F1
:10235000880F86E0F60111928A95E9F73ECF4D8706
:102360005E878D859E850E94E90F882371F2EE209D
:1023700061F28091EF01803208F4B8CF2091EA0138
:102380003091EB013A8329831B82BD82AC828E831C
:10239000CE010196A9CFE83CF10508F041C0FE2C22
:1023A000EE2009F4B2CF25132AC0941328C08091DF
:1023B000EF0180FD1BC0982F907FC1F0F80185834D
:1023C000903F31F0982F907F905F8F70892B85839D
:1023D000C8010E94880F86E0F801AAEEB1E00190E2
:1023E0000D928A95E1F70E942D10F7CE86E0F80154
:1023F000AAEEB1E001900D928A95E1F7EECE4D87FD
:102400005E878D859E850E94E90F81116FCF809137
:10241000EF0181608093EF01C8010E94880FDDCE3B
:102420007A2DB98AA88A6E2D89890E94ED0F86E0DF
:10243000F60111928A95E9F7D6CFEE2009F465CF1F
:102440004D875E878D859E850E94E90FF82E882333
:1024500009F45BCF86E0F801AAEEB1E001900D929D
:102460008A95E1F78AEE91E00E94410C0E943B10B0
:10247000BACF81E08E25CBCE1F93CF93DF93CDB71C
:10248000DEB72C970FB6F894DEBF0FBECDBF4F83DB
:10249000588769877A878B879C87CE0107960E9429
:1024A0009110882369F08A859B85892B39F04F81AB
:1024B0005885842F85238F3F09F071C016E05FC0D7
:1024C00086E0FE013796DE01119601900D928A9505
:1024D000E1F78A859B85892B89F38F8198858923EC
:1024E0008F3F61F32091B90130E0C90101968770F7
:1024F00099274091B8014817190671F40E94C60F38
:102500001092B9011092B80186E0EAEEF1E0DF0125
:102510001D928A95E9F7D2CF96E0929FD001939FC2
:10252000B00D1124A654BE4FFE01319601900D92BC
:102530009A95E1F78093B9010E940C10BFCF819F5B
:10254000C001112486549E4F0E9491108823E9F007
:10255000E091B8011E9FF0011124E654FE4F408126
:10256000518162817381848195810E94FC0F8091E9
:10257000B80190E00196877099278093B801809107
:10258000B8019091B9018913DACF2C960FB6F8945F
:10259000DEBF0FBECDBFDF91CF911F91089569853A
:1025A0007A858B859C850E94FC0F88CFEF92FF92E5
:1025B0000F931F93CF93DF938C01892B81F0F12C24
:1025C000EE24E394E8012196F8018491843770F4B5
:1025D000843008F05FC08130B1F08230A1F1DF912A
:1025E000CF911F910F91FF90EF900895853709F4D7
:1025F0004CC008F43DC09CE7980F903780F78F7768
:102600000E94D80C49C00E5F1F4FFE01849190E2DA
:10261000980F983060F48770FE2D01C0FF0F8A95E7
:10262000EAF78F2F0E9468150E94911502C00E9440
:10263000460C8F2D815030F2EFE9FFE03197F1F732
:1026400000C00000F7CF0E5F1F4FFE01849190E2A3
:10265000980F983050F48770FE2D01C0FF0F8A95B7
:10266000EAF78F2F0E946E15DFCF0E94D80CE1CFC2
:102670000E5F1F4FFE01C491C150D8F28FE99FE059
:102680000197F1F700C00000F7CF0E5F1F4FFE016A
:10269000F490CFCF0E94460C8E01CBCF08950C94BE
:1026A0004E130E944F1360931C0270931D0280937F
:1026B0001E0290931F020C94B00F08950C945113B6
:1026C0000F931F9300911C0210911D0220911E0276
:1026D00030911F02602B712B822B932B1F910F9136
:1026E0000C9451130F931F9300911C0210911D0223
:1026F00020911E0230911F026023712382239323B5
:102700001F910F910C9451130F931F9300911C0272
:1027100010911D0220911E0230911F026027712727
:10272000822793271F910F910C9451130C944E13F1
:102730000C9496130E9498136093180270931902D8
:1027400080931A0290931B020C94B00F60E070E02B
:10275000CB010C949A130F931F9341E050E060E07B
:1027600070E08A019B0104C0000F111F221F331F5C
:102770008A95D2F7C901B8011F910F910C949A1351
:102780000F931F9341E050E060E070E004C0440FFD
:10279000551F661F771F8A95D2F780911802909176
:1027A0001902A0911A02B0911B028A019B01082B09
:1027B000192B2A2B3B2BC901B8011F910F910C94A7
:1027C0009A130F931F9341E050E060E070E004C063
:1027D000440F551F661F771F8A95D2F7CB01BA01A8
:1027E000609570958095909500911802109119024E
:1027F00020911A0230911B026023712382239323BC
:102800001F910F910C949A130F931F9341E050E086
:1028100060E070E004C0440F551F661F771F8A9563
:10282000D2F78091180290911902A0911A02B091EA
:102830001B028A019B01082719272A273B27C90168
:10284000B8011F910F910C949A130F931F9300914D
:1028500018021091190220911A0230911B02602B6C
:10286000712B822B932B1F910F910C949A130F9322
:102870001F93009118021091190220911A023091B1
:102880001B0260237123822393231F910F910C94C9
:102890009A130F931F93009118021091190220911F
:1028A0001A0230911B0260277127822793271F91FC
:1028B0000F910C949A1308952CE0929F800D11248F
:1028C000982F977041E001C0440F9A95EAF78695DA
:1028D0008695869595E0899FF0011124E051FE4F81
:1028E00090E080E070E05191DF0111979B01082E8C
:1028F00002C0369527950A94E2F721702195252785
:10290000242325272C9301968530910561F708959E
:102910002CE0929F800D1124982F977086958695B4
:10292000869525E0829FF0011124E051FE4F50E092
:1029300040E080E0219130E0092E02C036952795D5
:102940000A94E2F721703327042E01C0220F0A9463
:10295000EAF7822B4F5F5F4F4530510559F70895D5
:10296000BF92CF92DF92EF92FF920F931F93CF937C
:10297000DF938C01C0901802D0901902E0901A02E7
:10298000F0901B0280911C0290911D02A0911E02EA
:10299000B0911F02C82AD92AEA2AFB2ACFE1D0E047
:1029A000BC2ED701C6010C2E04C0B695A7959795ED
:1029B00087950A94D2F780FD0EC0219788F7B12C35
:1029C0008B2DDF91CF911F910F91FF90EF90DF90B2
:1029D000CF90BF900895B8018C2F0E94E802019714
:1029E00061F3EECFCF93DF93EC010E94B014BE01F0
:1029F000DF91CF910C94E8021F93CF93DF93EB010B
:102A00009091B701992331F0CB01DF91CF911F91C4
:102A10000C94F214882379F0CB010E94B014182F83
:102A2000682FCE010E945C14BE01812FDF91CF91EF
:102A30001F910C94E802CB010E948814182FF4CF48
:102A4000682F80910801909109010C943F17682F1D
:102A500080910801909109010C944A178091080116
:102A6000909109010C9455178091200285958595C8
:102A70008595089580912002877008959091200295
:102A8000977081E009F480E00895809144020895F0
:102A900090914402892B80934402089580959091EF
:102AA000440298239093440208951092440208959A
:102AB00090914302892B80934302089580959091D1
:102AC000430298239093430208951092430208957D
:102AD00090914202892B80934202089580959091B3
:102AE0004202982390934202089510924202089560
:102AF00080912102089508950C947B1590912102F4
:102B0000981721F0809321020C947C1508958091F0
:102B10002102882329F01092210280E00C947C1578
:102B20000895E0910801F0910901809144028083A9
:102B3000E0910801F0910901808190914302892B75
:102B40008083E0910801F091090180819091420217
:102B5000892B808390912102992381F0E0910801D3
:102B6000F09109018081892B8083809108019091E7
:102B700009010E94AB1681110E94871580910801FE
:102B8000909109010C94CC0A08950C94C41598E016
:102B9000899F90011124622B609320020E94C01330
:102BA000809120028595859585950C94C515109288
:102BB000200280E00C94C515909120028095892315
:102BC00080932002282F277071F4282F082E000CE4
:102BD000330B9217130639F08595859585950E94DC
:102BE000E1130C94D715089580E0089590E080E0FB
:102BF0000E94B12021E08B3E9E4F09F020E0822F01
:102C0000089582E090E00C94A920682F82E090E083
:102C10000C94B72083E090E00C94A920682F83E007
:102C200090E00C94B720CF9384E090E00E94A9201C
:102C3000C82F81E290E00E94A920982F8C2FCF917D
:102C40000895CF93C92F682F84E090E00E94B720A9
:102C50006C2F81E290E0CF910C94B720AB01BC01C6
:102C60008FE090E00C94C920AB01BC0183E190E0BF
:102C70000C94C92060E070E0CB010C94341660E045
:102C800070E0CB010E942E160C943A166BEE7EEF8C
:102C900090E080E00E94D52060E082E090E00E9419
:102CA000B72060E083E090E00E94B72010921C0201
:102CB00010921D0210921E0210921F0260E084E02A
:102CC00090E00E94B72060E081E290E00E94B7208F
:102CD00060E085E090E00E94B72060E086E090E050
:102CE0000E94B7206FEF87E090E00E94B72040E09D
:102CF00050E0BA0188E090E00E94C92060E08DE0D9
:102D000090E00E94B72040E050E0BA0188E190E0F6
:102D10000E94C92060E087E190E00E94B72040E077
:102D200050E0BA018CE190E00E94C92060E080E2AE
:102D300090E00E94B72040E050E0BA0188E190E0C6
:102D40000E94C9200C943F160C944616682F8EE002
:102D500090E00C94B720FC013296809114018823F6
:102D600021F0809181029EE187FF96E080E0915002
:102D700008F4089521912223D1F38F5FF8CF6623C1
:102D800001F1209114012223F1F02091810227FF0B
:102D90001AC0462F4695469546954E3190F4677079
:102DA00021E030E002C0220F331F6A95E2F7840F62
:102DB000911DFC01828190E02823392381E0232B9F
:102DC00069F480E00895FC01329608962191261757
:102DD00021F0E817F907D1F7F4CF81E008959C01BD
:102DE000FC0132969FEF80E04191461751F09F3FE2
:102DF00019F4411101C0982F8F5F8630A9F79F3FCA
:102E000009F40895290F311D97FD3A95F901628360
:102E10000895FC01329608962191261303C0DF0124
:102E200011971C92E817F907B9F70895E62FE69570
:102E3000E695E695EE3168F4E80FF92FF11D67701D
:102E400021E030E001C0220F6A95EAF78281822BEF
:102E500082830895E62FE695E695E695EE3170F4C7
:102E6000E80FF92FF11D677021E030E001C0220F5B
:102E70006A95EAF72095828128232283089520917C
:102E80001401222329F02091810227FD0C941617AA
:102E90000C94EF1620911401222329F02091810235
:102EA00027FD0C942A170C940917FC013296809187
:102EB0001401882351F08091810287FF06C08EE1C2
:102EC000DF011D928A95E9F7089586E0F9CF08950C
:102ED00008950C94681780918702843049F10E940C
:102EE000691780E00E94C0021092460288E190E0DB
:102EF00020E40FB6F894A895809360000FBE20934D
:102F0000600083B7817F846083BF83B7816083BFA4
:102F10007894889583B78E7F83BF0FB6F894A89571
:102F200080916000886180936000109260000FBE05
:102F300008950895CF930E9467170E9452050E943A
:102F40009917C0E08C2F0E94DB04892B31F4CF5FEE
:102F5000C530C1F780E0CF91089581E0FCCF08959E
:102F60000C94AF170E94C60F0E94C00A0E94C002B4
:102F70000C94B0171F921FB61F9211248F939F932A
:102F8000AF93BF9380914602811113C080917D025F
:102F900090917E02A0917F02B09180024196A11D86
:102FA000B11D80937D0290937E02A0937F02B09327
:102FB0008002BF91AF919F918F911F901FBE1F9074
:102FC000189582E084BD93E095BD9AEF97BD8093FC
:102FD0006E0008952FB7F89480917D0290917E0243
:102FE000A0917F02B09180022FBF08952FB7F8946F
:102FF00060917D0270917E0280917F0290918002AB
:103000002FBF08959C014FB7F89480917D02909155
:103010007E02A0917F02B09180024FBF821B930B72
:10302000089578941F921FB61F9211248F939F9337
:10303000AF93BF9380917D0290917E02A0917F0219
:10304000B09180020196A11DB11D80937D029093E5
:103050007E02A0937F02B0938002BF91AF919F91B7
:103060008F911F901FBE1F90189587E797E7909349
:1030700001088093000888E19AE00FB6F894A895BB
:10308000809360000FBE90936000FFCF9093890102
:10309000809388010895AF92BF92CF92DF92EF9212
:1030A000FF920F931F93CF93C0E0CC24C394D12CF5
:1030B000E82EF12C8C2F0E94DB045C0110E000E074
:1030C000C601002E02C0880F991F0A94E2F78A21D8
:1030D0009B21892B99F40F5F1F4F0C30110581F74D
:1030E000CF5FC53039F780E0CF911F910F91FF90EE
:1030F000EF90DF90CF90BF90AF900895602F7C2F1E
:1031000080E00E94CC02E816F90629F781E0ECCFB6
:10311000CF93C82F8CE20E944B18882321F08C2F6C
:10312000CF910C944B1880E0CF910895CF930E94DB
:10313000F615811102C00E94A416C5E608C00E94BF
:1031400052058FE39CE90197F1F700C00000C150E0
:10315000B1F789E20E94881881110BC18AE20E94AE
:10316000881881110E94A41685E00E948818811198
:103170000E9435180E9401168093450287E00E9444
:103180008818882371F08BE10E948818882309F43D
:10319000CDC090914502892F8D7F91FF82608093F1
:1031A0004502809145020E9405160E9413169093D5
:1031B00082028093810280EE0E948818882341F069
:1031C00090918102892F8E7F90FF81608093810290
:1031D00089E30E948818882341F090918102892F09
:1031E0008D7F91FF82608093810282EE0E94881819
:1031F000882341F090918102892F8B7F92FF846018
:103200008093810286EE0E948818882341F0909175
:103210008102892F877F93FF88608093810283EEEC
:103220000E948818882341F090918102892F8F7E17
:1032300094FF80618093810285E30E94881888232F
:1032400041F090918102892F8F7D95FF806280935C
:10325000810281E30E948818882341F090918102C5
:10326000892F8F7B96FF80648093810281E10E9489
:103270008818882341F090918102892F97FB87F964
:1032800080588093810280918102909182020E94F5
:10329000211687E20E948818C82F8EE10E948818A4
:1032A0008111C2608FE10E9488188111C46080E2A0
:1032B0000E9488188111C86081E20E9488188111DB
:1032C000C06182E20E9488188111C06283E20E947C
:1032D00088188111C06484E20E948818882309F448
:1032E00042C0C0688C2F0E940E166C2F70E090E0D8
:1032F00080E00E945E136091180270911902809123
:103300001A0290911B020E9498138FE00E94881865
:10331000882319F081E00E94A61685E10E94881892
:10332000882339F180E0CF910C94A6168EE00E949C
:103330008818882339F090914502892F8B7F92FF5E
:1033400084602DCF80E10E948818909145028823E7
:1033500029F0892F877F93FF886021CF892F8E7F67
:1033600090FF81601CCFC111BDCF0E940A16682F4B
:10337000BDCFCF910895809167020895CF93DF93D9
:1033800000D00F92CDB7DEB790918702943019F537
:1033900089837B836A8382E08093E9008FEF909139
:1033A000E800815095FD06C095ED9A95F1F7000073
:1033B0008111F5CF8091E80085FF0DC050E040E01D
:1033C00063E070E0CE0101960E94EA1B8091E80064
:1033D0008E778093E8000F900F900F90DF91CF9140
:1033E0000895BC0184E00C94BE19BC0183E00C94E8
:1033F000BE199C0182E08093E9009FEF8091E80074
:10340000915085FD06C085ED8A95F1F70000911178
:10341000F5CF8091E80085FF0CC050E040E066E009
:1034200070E0C9010E94EA1B8091E8008E778093CA
:10343000E8000895CF93DF93EC0180911401882375
:10344000B1F18091810287FF32C060E282E0809317
:10345000E9008FEF9091E800815095FD06C095ED51
:103460009A95F1F700008111F5CF8091E80085FF72
:103470001BC08091140170E050E040E0811104C055
:1034800050E040E068E070E0CE010E94EA1B8091CD
:10349000E8008E778093E80080E2FE01A7E4B2E0C6
:1034A00001900D928A95E1F7DF91CF91089568E040
:1034B00081E0CDCF80918602811109C00E947A1DE2
:1034C0000E94D71D8091E20084608093E2000895FD
:1034D00010928602089508950895089542E061ECDF
:1034E00081E00E94F61C42E261EC82E00C94F61C42
:1034F00080918902833009F45FC030F48130C1F1DA
:10350000823009F49BC008958A3009F487C08B305B
:1035100009F46DC0893009F04EC080918802813273
:1035200009F049C080918C0290918D02029708F0B9
:1035300042C08091E800877F8093E8008091E80096
:1035400082FF35C09091F3008091F200029729F438
:103550008091F1008B7F813021F48091F100809384
:1035600067028091E8008B778093E8000C942A1D15
:1035700080918802813AF9F48091E800877F8093F6
:10358000E80080918C0290918D02892B61F460E2B9
:1035900087E492E070E00E94391C8091E8008B770C
:1035A0008093E800089560E090E080E0F3CF8091A0
:1035B00087028111C3CF089580918802813AD9F79B
:1035C00080918C0290918D02892BA9F78091E8005F
:1035D000877F8093E8008091E80080FFFCCF809196
:1035E00014018093F1008091E8008E77BDCF809127
:1035F0008802813201F780918C0290918D02892B93
:10360000D1F68091E800877F8093E8000E942A1D10
:1036100080918A02809314010C94C60F80918802D5
:10362000813249F68091E800877F8093E8000E940C
:103630002A1D80918B0280936802089580918802F0
:10364000813A09F0B8CF8091E800877F8093E80045
:103650008091E80080FFFCCF80916802C2CF84B7E0
:10366000877F84BF0FB6F894A89580916000886129
:1036700080936000109260000FBE80E890E00FB66B
:10368000F89480936100909361000FBE0E94410BFB
:103690000E947A1D0E94D71D8091E2008460809371
:1036A000E20078940E9460200E94510B8AE091E031
:1036B0000E94BB0A809187028530A9F00E94590BB5
:1036C0000E944F0B0E94500BF5CF0E946B17809108
:1036D0008502882341F00E949A17882321F00E94D6
:1036E000D41B0E94C60F80918702853071F30E941F
:1036F000B217E4CF0C947C1B292F332723303105DC
:1037000019F168F42130310509F444C02230310543
:1037100009F445C090E080E030E020E025C021328F
:10372000310549F122323105A9F780E490E02FE418
:1037300033E061157105C1F086EB90E029E932E0D4
:103740006130710589F0E6CF99278130910581F0CC
:10375000009729F00297F1F6E4E1F2E002C0E8E414
:10376000F2E0849190E09F01FA0131832083089573
:10377000E2E3F2E0F6CF89E090E02EE532E0611579
:10378000710591F389E090E027E732E0613071053F
:1037900059F3C0CF82E190E027E832E0E5CF8BE338
:1037A00090E02CE432E0E0CF80E189BD82E189BD88
:1037B00009B400FEFDCF8091D8008F7D8093D800A2
:1037C0008091E00082608093E0008091E00081FDC4
:1037D000FCCF0895AF92BF92CF92DF92FF920F93EA
:1037E0001F93CF93DF936C01EB018A010E94491D67
:1037F000F82E811123C00115110539F0F8018081DF
:103800009181C81BD90BC80ED91EB12CA12C2097B1
:10381000A9F08091E80085FD22C08091E8008E77B4
:103820008093E80001151105A1F0F80180819181D4
:10383000A80EB91EB182A08285E0F82E8F2DDF91EF
:10384000CF911F910F91FF90DF90CF90BF90AF90DD
:1038500008950E94491D8823D1F2F82EEFCFF6017A
:1038600081916F018093F1002197FFEFAF1ABF0A9A
:10387000CECFFC0180918E0290918F028617970720
:10388000A0F06115710529F49091E8009E7790935E
:10389000E80090E06115710551F4911108C0809124
:1038A000E80082FF34C080E00895BC01F2CF80912F
:1038B00087028823C1F18530C1F18091E80083FD42
:1038C00030C08091E80082FDEACF8091E80080FF5F
:1038D000E1CF8091F3002091F200382F611571053E
:1038E00019F02830310558F091E02830310509F001
:1038F00090E02091E8002E772093E800CBCF8191D3
:103900008093F100615071092F5F3F4FE7CF8091A5
:103910008702882341F0853041F08091E80083FFE1
:10392000BECF81E0089582E0089583E00895FC0110
:1039300080918E0290918F0286179707A0F06115F3
:10394000710529F48091E8008E778093E80090E07B
:103950006115710551F4911108C08091E80082FF52
:1039600035C080E00895BC01F2CF809187028823A2
:10397000C9F18530C9F18091E80083FD31C08091A3
:10398000E80082FDEACF8091E80080FFE1CF8091DE
:10399000F3002091F200382F6115710519F02830DD
:1039A000310558F091E02830310509F090E0809120
:1039B000E8008E778093E800CBCF84918093F1006C
:1039C0003196615071092F5F3F4FE6CF809187029A
:1039D000882341F0853041F08091E80083FFBDCF1E
:1039E00081E0089582E0089583E00895982F97304C
:1039F00028F08F708093E90081E008959093E900AA
:103A0000242F762F50E0981731F07091EC00209120
:103A1000ED005091F00021FD02C09F5FE8CF309192
:103A2000EB003E7F3093EB003091ED003D7F309313
:103A3000ED003091EB0031603093EB007093EC00BF
:103A40002093ED005093F0002091EE0027FDE5CF8C
:103A500080E008958091880287FF13C08091E8007C
:103A600082FF06C08091E8008B778093E80004C055
:103A7000809187028111F2CF089580918702882377
:103A8000D9F38091E80080FFF8CF8091E8008E772D
:103A9000ECCF2091E4003091E50095E6A90120915A
:103AA000EC00822F817020FF06C08091E80080FF2B
:103AB00006C080E008952091E80022FD1AC08091A0
:103AC0008702882389F0853089F08091EB0085FD9D
:103AD0000FC02091E4003091E50042175307F9F23E
:103AE0009150E1F684E0089582E0089583E008951E
:103AF00081E008950E94E81D0E94F01DE0EEF0E0D4
:103B0000808181608083E8EDF0E080818F77808321
:103B100019BCA7EDB0E08C918E7F8C9380818F7E55
:103B200080831092860208950F931F93CF93DF93A3
:103B30000E94E81D0E94F01DC8EDD0E088818F77BB
:103B4000888388818068888388818F7D888319BC79
:103B500010928702109283021092850210928402C2
:103B600000EE10E0F80180818B7F80838881816086
:103B7000888342E060E080E00E94F61CE1EEF0E025
:103B800080818E7F8083E2EEF0E08081816080839F
:103B9000808188608083F80180818E7F8083888126
:103BA00080618883DF91CF911F910F910895E8ED97
:103BB000F0E080818F7E8083E7EDF0E0808181609E
:103BC000808384E082BF81E0809386020C94941D00
:103BD000E8EDF0E080818E7F80831092E20008950E
:103BE0001092DA001092E10008951F920F920FB622
:103BF0000F9211242F933F934F935F936F937F9373
:103C00008F939F93AF93BF93EF93FF938091E100C6
:103C100082FF0BC08091E20082FF07C08091E1002B
:103C20008B7F8093E1000E945F208091DA0080FF0B
:103C300019C08091D80080FF15C08091DA008E7F76
:103C40008093DA008091D90080FF96C080E189BD21
:103C500082E189BD09B400FEFDCF81E08093870237
:103C60000E945A1A8091E10080FF19C08091E20001
:103C700080FF15C08091E2008E7F8093E2008091EA
:103C8000E20080618093E2008091D800806280939E
:103C9000D80019BC85E0809387020E946C1A80913D
:103CA000E10084FF2BC08091E20084FF27C080E107
:103CB00089BD82E189BD89B5982F917080FFFBCFC6
:103CC0008091D8008F7D8093D8008091E1008F7E15
:103CD0008093E1008091E2008F7E8093E2008091EA
:103CE000E20081608093E20080918302882309F4DE
:103CF00049C084E0809387020E946D1A8091E100A0
:103D000083FF29C08091E20083FF25C08091E100FC
:103D1000877F8093E10082E0809387021092830284
:103D20008091E1008E7F8093E1008091E2008E7FA0
:103D30008093E2008091E20080618093E20042E0A3
:103D400060E080E00E94F61C8091F0008860809323
:103D5000F0000E946B1AFF91EF91BF91AF919F917C
:103D60008F917F916F915F914F913F912F910F9024
:103D70000FBE0F901F90189519BC109287020E94D9
:103D8000681A70CF8091E30087FD93E090938702DB
:103D9000B3CF1F920F920FB60F9211242F933F9320
:103DA0004F935F936F937F938F939F93AF93BF9343
:103DB000CF93DF93EF93FF93D091E900DF70809171
:103DC000EC00C82FC17080FDC0E81092E90080911E
:103DD000F000877F8093F00078940E940D1F10926E
:103DE000E9008091F00088608093F000CD2BCF70C7
:103DF000C093E900FF91EF91DF91CF91BF91AF9117
:103E00009F918F917F916F915F914F913F912F91F2
:103E10000F900FBE0F901F9018951F93CF93DF93B5
:103E2000CDB7DEB7AA970FB6F894DEBF0FBECDBFF1
:103E300088E892E02091F100FC012193CF01F2E0AB
:103E400080399F07B9F70E94781A8091E80083FFB4
:103E50001EC180918802909189029A3008F017C1A2
:103E6000E92FF0E0E55FFE4D0C948F20803899F04B
:103E7000823809F00CC180918C028F70873008F075
:103E800006C18093E9008091EB0085FB882780F9CB
:103E90001092E90006C080918402909185029111F0
:103EA00082609091E800977F9093E8008093F10002
:103EB0001092F1008091E8008E77E5C0882309F424
:103EC000D3C0823009F0E3C080918A028111D6C04C
:103ED00080918C028F702FEF280F263008F0D7C00A
:103EE0008093E9002091EB0020FFC8C0933031F4AB
:103EF0008091EB0080628093EB00C0C09091EB005A
:103F000090619093EB0021E030E001C0220F8A9590
:103F1000EAF72093EA001092EA008091EB008860B3
:103F2000EACF8111B4C010918A021F778091E3001B
:103F30008078812B8093E3008091E800877F8093D5
:103F4000E8000E942A1D8091E80080FFFCCF80914C
:103F5000E30080688093E30082E0111183E08093A6
:103F6000870295C08058823008F091C080918A0203
:103F700090918B028C3D23E09207A1F583E08A8328
:103F80008AE289834FB7F894DE01139620E03EE081
:103F900051E2E32FF0E050935700E49120FF03C07B
:103FA000E295EF703F5FEF708E2F90E0EA30C0F047
:103FB000C7968D939D932F5F243159F74FBF809102
:103FC000E800877F8093E8006AE270E0CE01019606
:103FD0000E94391C8091E8008B778093E80057C0DD
:103FE000C096E7CF60918C0270918D02AE014F5F59
:103FF0005F4F0E947A1BBC01892B09F448C0909145
:10400000E800977F9093E80089819A810E94971C2D
:10401000E1CF8038E1F58091E800877F8093E80068
:10402000809183028093F10045CF811130C090913F
:104030008A02923060F58091E800877F8093E800E3
:10404000909383020E942A1D80918302882311F09D
:1040500084E005C08091E30087FDFACF81E0809382
:1040600087020E946E1A13C080918A02813079F40F
:1040700081E0933009F080E0809385021092E9009E
:104080008091E800877F8093E8000E942A1D80913C
:10409000E80083FF0AC08091E800877F8093E800F2
:1040A0008091EB0080628093EB00AA960FB6F894A3
:1040B000DEBF0FBECDBFDF91CF911F910895089550
:1040C000CF93809187028823A1F0C091E900CF703F
:1040D0009091EC00892F817090FD80E8C82B1092A0
:1040E000E9008091E80083FD0E940D1FCF70C0930E
:1040F000E900CF91089597FB072E16F4009407D09E
:1041000077FD09D00E94952007FC05D03EF49095DC
:1041100081959F4F0895709561957F4F0895EE0F9B
:10412000FF1F0590F491E02D0994AA1BBB1B51E1E0
:1041300007C0AA1FBB1FA617B70710F0A61BB70B17
:10414000881F991F5A95A9F780959095BC01CD01BC
:104150000895F999FECF92BD81BDF89A992780B54F
:104160000895A8E1B0E042E050E00C94DD20262F55
:10417000F999FECF92BD81BDF89A019700B402165D
:1041800039F01FBA20BD0FB6F894FA9AF99A0FBE0B
:1041900008950396272F0E94B8200E94B720252F4C
:1041A0000E94B820242F0C94B8200196272F0E943B
:1041B000B8200C94B720DC01CB01FC01F999FECFAB
:1041C00006C0F2BDE1BDF89A319600B40D9241509F
:1041D0005040B8F70895F894FFCF8F0D8F0DE70D7D
:1041E000E70D390E550EBC0DBC0D600EEC0EFB0E2E
:1041F000FB0E570FBC0DBC0D600FD50FD50FDE0F9A
:10420000DE0FE00FDE0FDE0FDE0FD50FD50FE50F4F
:10421000DE0FDE0FE50F361F5E1F47205E1F4720B3
:0A422000911FB21F4720092015204E
:10422A002808641E140A321E2202BB191A1AF91926
:10423A00F519F11901E200E900EA00B500B600B784
:10424A0000CD008301CC008A01920194012102234E
:10425A000224022502260227022A02B300B4006FB2
:10426A00007000818283C63497669091F6F73133E5
:10427A0036329392F49435E200E900EA00B500B6CA
:10428A0000B700CD008301CC008A0192019401217C
:10429A0002230224022502260227022A02B300B4BC
:0842AA00006F007000818283A7
:00000001FF
