:100000000C94CE010C9415020C9415020C9415025C
:100010000C9415020C9415020C9415020C94150204
:100020000C9415020C9415020C946D1E0C94411F37
:100030000C9432180C9415020C9415020C941502B1
:100040000C9415020C9415020C9415020C941502D4
:100050000C9415020C9489180C9415020C9415023A
:100060000C9415020C9415020C9415020C941502B4
:100070000C9415020C9415020C9415020C941502A4
:100080000C9415020C9415020C9415020C94150294
:100090000C9415020C9415020C9415020C94150284
:1000A0000C9415020C9415020C94150229001E00E4
:1000B0001F0020002100220023002400250026002C
:1000C00027002D002B0014001A000800150017004F
:1000D0001C0018000C00120013002E002A000468F7
:1000E0001664076109620A000B000D720E710F643D
:1000F000337834002C001D001B0006001900050099
:10010000110010003600370038002800E300E0003E
:10011000E100E200AA00A9004E004B0001512C00B2
:1001200002514C0035001E021F0220022102220251
:10013000230224022502260227022A003A003B005D
:100140003C003D003E003F004000410042004300B3
:1001500044004500A9004A00F100ED00F200F9005A
:100160004B0052004E00760030000100AA004D0006
:10017000EF00EE00F000FA00500051004F002F0099
:100180003100010001000100010001002E032D01DA
:10019000B700B6000100010001000100005CA600EC
:1001A000A7000100A500010023002400250026006F
:1001B00027002A003500B600B700B4007E00010019
:1001C00001000100AF00B300540055004C00B20024
:1001D00001000100010001001E001F00200021009D
:1001E00022002D00010001000100010001000100BA
:1001F00023002400250026002700570001000100ED
:1002000001000100AE00A800AB00AC00010001003D
:10021000010063001C0350007400650072006F0051
:100220006E00360030002000760030002E003100D5
:10023000000020034D006F006F0072006500200079
:100240004B006500790062006F006100720064007D
:10025000730000000403090409023B00020100A02E
:10026000FA09040000010301010009211101000144
:100270002240000705810308000A09040100010368
:1002800000000009211101000122B60007058203C8
:1002900020000A1201100100000008EDFE6060015C
:1002A000000102000105010902A10185020901A165
:1002B0000005091901290815002501950875018116
:1002C000020501093009311581257F9502750881E4
:1002D0000609381581257F950175088106050C0AE8
:1002E00038021581257F950175088106C0C005017A
:1002F0000980A101850319012AB700150126B7005D
:10030000950175108100C0050C0901A10185041932
:10031000012AA002150126A002950175108100C0D6
:1003200005010906A1018505050719E029E7150062
:1003300025019508750181020507190029EF1500AF
:10034000250195F07501810205081901290595051A
:1003500075019102950175039101C005010906A17E
:1003600001050719E029E7150025019508750181A8
:10037000029501750881010507190029FF1500265E
:10038000FF009506750881000508190129059505E6
:1003900075019102950175039101C00011241FBEE2
:1003A000CFEFDAE0DEBFCDBF04B603FE27C08091F9
:1003B000920290919302A0919402B091950287309D
:1003C000904BA740B04BD1F410929202109293023E
:1003D000109294021092950214BE84B7877F84BF56
:1003E0000FB6F894A89580916000886180936000B2
:1003F000109260000FBEE0E0F8E3099511E0A0E084
:10040000B1E0EAE1F3E402C005900D92A838B1072B
:10041000D9F722E0A8E8B1E001C01D92A239B207E5
:10042000E1F70E94A71B0C9463210C94000008952F
:10043000089581E0089581E008950C9419020895CB
:100440000C941F021F93CF93DF9300D000D00F9224
:10045000CDB7DEB749835A836B833091B701898169
:100460009A8131111DC06623B9F02223A9F00E94A0
:100470002815182F682F89819A810E94D4146981C8
:100480007A81812F0F900F900F900F900F90DF9136
:10049000CF911F910C94D2020E940015182FEFCF1C
:1004A0000E94281569817A81EDCFFC01262F4081B9
:1004B00051816281738184810C942202CF93DF93F6
:1004C000EC0160E00E945502BE01DF91CF910C94D7
:1004D00020020E946E16811102C00E941C170C940B
:1004E000DD040C94DF0408950E94860D0E947302BF
:1004F0002FEF84E39CE0215080409040E1F700C062
:1005000000000C94AD180F931F93CF93DF93EC0171
:1005100061E00E9455028C01BE010E941D028823E9
:1005200029F1BE01C8010E9422098823F9F0BE0109
:10053000C8010E9474098823C9F0BE01C8010E9445
:10054000970A882399F08A81882339F001158CE570
:10055000180751F00F3D1C4579F0CE01DF91CF9186
:100560001F910F910C941B020E94740280E0DF9196
:10057000CF911F910F9108950E941C17F7CF0895F6
:100580000C94BF0281E008950C94C202CF93C82F4F
:100590000E94C0028C2FCF910C94C40290E080E0A6
:1005A00008950895972F70E02CE0929F600D711DC3
:1005B0001124FB019CE3899FE00DF11D1124EE0F36
:1005C000FF1FE455FF4F859194910895FC01EE0FB4
:1005D000FF1FEC5EFD4F859194910895CF93DF93BB
:1005E0000E94D2020E940304EC01811520E59207CB
:1005F00008F042C0811530E4930708F0BDC0883E82
:10060000910528F5803E910508F09DC0883A910536
:1006100088F4853A910508F08FC08130910509F47E
:1006200092C0009709F48FC0049708F08CC0D0E006
:10063000C0E089C08F3B910508F489C0805C9109B6
:10064000C03CD105A0F30E94E602EC017CC08115FC
:10065000904250F4C11581E0D80708F074C0CD3E37
:10066000D10528F3D0656FC0C11590E3D90708F014
:1006700079C0CE019F70E7CF811525E5920758F527
:10068000811534E5930708F0A6C0811542E594076B
:1006900050F4C11581E5D80708F471C0DC2FCC27D0
:1006A000C16FD06A50C0982F969596959E01237081
:1006B0003327C115D34508F07FC0C1E0D0E002C0A8
:1006C000CC0FDD1F2A95E2F720E2929FC001112492
:1006D000C82BD92B6FC0C11589E5D807A8F4C1155F
:1006E00098E5D90708F07CC0C11526E5D20708F0C7
:1006F0009ECF8C2F0E949A04C82FD0E0DC2FCC27ED
:10070000CC27DF71D0621FC0C1153AE5D30708F4CA
:100710006CC0CE0190568115904208F088CF8D2F85
:100720008F710E949A0490E0982F882788279F71E4
:100730009C012C2BE901E6CFC55AD0E0CD5BDE4F02
:10074000C881D0E0D064CE01DF91CF910895C85A1E
:10075000D0E0CC0FDD1FCB5EDE4F0990D881C02DDD
:10076000D464F1CFCE019927D3FF03C0EC01D86C3C
:10077000EACFEC01D06CE7CFDF70D06AE4CFCE01D6
:10078000E4E096958795EA95E1F783702C2F2695FE
:100790002695237090E2299F90011124382B8C2FED
:1007A0008370C1E0D0E002C0CC0FDD1F8A95E2F774
:1007B000C22BD32BDC68C7CFC1E0D0E002C0CC0F86
:1007C000DD1F2A95E2F730E2939FC0011124C82B68
:1007D000D92BDA68B8CFD82FCC27C46FD06AB3CF63
:1007E000DC2FCC27C06FD06AAECF8C2F8F700E94C9
:1007F0009A0434E0D695C7953A95E1F7CF709C2FCF
:10080000EC01D069A0CF82389105B1F1B0F4813309
:10081000910509F475C048F48932910509F469C05D
:100820008A32910509F473C008958533910509F45E
:1008300059C08933910501F10895833E9105A9F1CD
:1008400038F4803E9105F9F0823E910549F1089512
:10085000863E9105A9F1873E9105C9F1843E910537
:1008600019F52091840221FF1FC08091830284FD2D
:1008700014C087EE90E00895209183022370A1F0C8
:1008800080EE90E008952091830220FD47C03091D2
:10089000840230FF09C024FF44C090E080E004C01F
:1008A0002091830222FDF7CF08952091830222FD3B
:1008B0003BC03091840230FDE3CF24FFF5CFEDCF74
:1008C0002091830223FFF0CF24FDE7CFD2CF2091E8
:1008D000830223FD2CC03091840231FFEECF84EEE1
:1008E00090E008952091830225FFDECF89E290E019
:1008F00008952091830225FFD7CF85E390E00895E6
:100900002091830226FFD0CF8AE290E008952091C3
:10091000830226FFC9CF81E390E0089589E390E048
:10092000089583EE90E0089582EE90E0089586EEBB
:1009300090E008959091830292FF06C0282F2871BD
:100940002830F9F4877F846093FF06C0282F287130
:100950002831F1F4877E84612091840220FF06C053
:10096000382F38713830D9F4877F816021FF06C075
:10097000282F28712831D1F4877E816194FD877EEC
:100980000895282F24712430F9F68B7F8860DCCFFE
:10099000282F2471243101F78B7E8861DDCF382F19
:1009A0003171313019F78E7F8860E0CF282F2171A7
:1009B000213121F78E7E8861E1CF0C9417020C94CF
:1009C0001802E82FF0E0EE0FFF1FEB58FD4F80817B
:1009D00091810895089580EA8A95F1F7089500C0FD
:1009E00008950C94EB04F894E82FE295EF70F0E092
:1009F00031A1282F2F7081E090E001C0880F2A9547
:100A0000EAF7982F9095932391A392A1892B82A323
:100A1000789408950F931F93CF93DF93C6E4D1E0AA
:100A200002E511E089910E94F3040C171D07D1F72C
:100A300083E90E94F30482E90E94F30484EF0E9498
:100A4000F30484E90E94F30485E30E94F304109206
:100A50006C0210926B021092760210927502109244
:100A60006E0210926D02109278021092770210922C
:100A7000700210926F0210927A0210927902109214
:100A800072021092710210927C0210927B021092FC
:100A900074021092730210927E0210927D0285E021
:100AA0000E94F105DF91CF911F910F910C94690283
:100AB0006F927F929F92AF92BF92CF92DF92EF920E
:100AC000FF920F931F93CF93DF9396E4E92E91E06B
:100AD000F92ED0E0C0E010E0CC24C394D12C35E74F
:100AE000A32E32E0B32ED7018D917D01F894E82F2B
:100AF000E295EF70F0E021A18F70A60102C0440FD3
:100B0000551F8A95E2F7CA01922F982B91A392A1C3
:100B10008095892382A378940E94EF04A6010C2E6D
:100B200002C0440F551F0A94E2F7BA016095709510
:100B3000EBE6F2E082E5682E81E0782E00E021917C
:100B40003191D3019D903D01892D82958F7090E068
:100B5000DC0190968C9190E0B92DBF7002C0959504
:100B60008795BA95E2F780FD38C0C901842B952B93
:100B70002817390739F09F0122503109D9018D9387
:100B80009C9301E0AE16BF06D1F6F7013197808144
:100B90000E94F304CB3011F00E94F104102B219637
:100BA000CC30D10509F09FCF212F45E065E772E0F9
:100BB0008BE692E00E94F2050E947102812FDF9184
:100BC000CF911F910F91FF90EF90DF90CF90BF904A
:100BD000AF909F907F906F900895C90186239723CF
:100BE000C7CF0895FF920F931F93CF93DF93F82EF3
:100BF000092F162FD72FC42F222349F081E080938D
:100C00008C010E94621890938B0180938A018091DD
:100C10008C018823A1F080918A0190918B010E9420
:100C20007A18069760F0EF2DF02FA12FBD2F90E0DE
:100C300080E0D0E08C179D0744F010928C01DF918A
:100C4000CF911F910F91FF900895219131912D9394
:100C50003D930196EFCF8091930180FF12C0609188
:100C6000050185E0689FB00111247595679575951C
:100C7000679560387105A8F561157105A1F1862F9A
:100C8000089581FF09C06091050185E0689FB0016A
:100C9000112475956795EDCF6091050182FD0AC01D
:100CA000809192018823D1F0909104016091050117
:100CB000891728F085E0689FB0011124DACF869F5C
:100CC000B001112485E0869F9001879F300D11248B
:100CD000692F70E0C9010E94F320CBCF65E070E07E
:100CE000CECF8FE7089581E008958091930180FF32
:100CF0000CC06091010170E07595679575956795D9
:100D00006115710549F1862F089581FF06C0609134
:100D1000010170E075956795F3CF6091010182FD47
:100D20000BC0909191019923A1F0609100018091F5
:100D30000101961738F0682F70E06038710500F3F4
:100D40008FE70895899FC001112470E00E94F3206D
:100D5000F4CF61E070E0D7CF81E008958D3E31F4AB
:100D60000E942B0681958093970108958E3E19F479
:100D70000E942B06F8CF8F3E31F40E942B068195FE
:100D8000809396010895803F19F40E942B06F8CFB6
:100D9000893F29F40E9475068093980108958A3F3F
:100DA00021F40E9475068195F7CF8B3F31F40E94A4
:100DB000750681958093990108958C3F19F40E94DE
:100DC0007506F8CF9FE0980F983070F4815F990B0B
:100DD00021E030E001C0220F8A95EAF78091950169
:100DE000822B8093950108958D3F31F4809193017A
:100DF00081608093930108958E3F21F48091930147
:100E00008260F7CF8F3FB9F7809193018460F1CF73
:100E1000409196018D3E59F48091970187FF0DC056
:100E20001092970141110BC01092920108C08E3EA2
:100E300081F48091970118169CF3442381F08091EE
:100E4000980190919901892B09F05AC01092910153
:100E500008958F3E49F447FFF0CF1092960180919C
:100E600097018111ECCFE0CF803F19F41416ACF359
:100E7000E4CF90919801893F29F41916F4F6109265
:100E80009801DBCF8A3F19F497FFD7CFF8CF909125
:100E900099018B3F29F497FFD0CF10929901CDCFC4
:100EA0008C3F19F41916CCF3C8CF9FE0980F9830F7
:100EB00090F4815F990B21E030E0B90102C0660F28
:100EC000771F8A95E2F7CB01809590919501892350
:100ED00080939501B2CF8D3F31F4809193018E7F45
:100EE00080939301AACF8E3F21F4809193018D7F4F
:100EF000F7CF8F3F09F0A1CF809193018B7FF0CF87
:100F000008950E9462189C0190919601809197012A
:100F1000982B21F03093900120938F0190919801AC
:100F200080919901982B21F030938E0120938D01AF
:100F300084E991E00C94EC0AEF92FF920F931F93D7
:100F4000CF93DF9300D000D000D0CDB7DEB786E0DE
:100F5000E4E9F1E0DE01119601900D928A95E1F746
:100F6000E0909601F09097010091980110919901FD
:100F70001092960110929701109298011092990187
:100F80008E2D8F2991F080918F01909190010E9478
:100F90007A18AC0190919201992309F43FC0809195
:100FA00006018417150608F447C0802F812B91F0A5
:100FB00080918D0190918E010E947A18AC019091E0
:100FC0009101992309F477C08091020184171506D5
:100FD00008F47FC08091960190919701892B9091A0
:100FE0009801892B90919901892B11F00E9481071A
:100FF00086E0FE013196A4E9B1E001900D928A9558
:10100000E1F726960FB6F894DEBF0FBECDBFDF9195
:10101000CF911F910F91FF90EF90089520910701BC
:101020008AE0289F900111242417350708F0BDCFCE
:101030009F5F9093920102C09F3FD1F7EE2059F03D
:101040000E942B069FEF1E140CF491E0899F802DC7
:10105000112480939601FF2059F00E942B069FEFE8
:101060001F140CF491E0899F802D11248093970127
:1010700030919601332309F498CF209197012223D0
:1010800009F493CF45EB3403C0011124992359F09F
:101090009093960145EB240390011124332339F0FA
:1010A0003093970182CF81E080939601F3CF81E066
:1010B000809397017ACF209103018AE0289F9001C5
:1010C00011242417350708F085CF9F5F9093910175
:1010D00002C09F3FD1F7002359F00E9475069FEF91
:1010E00010160CF491E0899F802D112480939801B3
:1010F000112359F00E9475069FEF11160CF491E030
:10110000899F802D11248093990130919801332378
:1011100009F460CF20919901222309F45BCF45EBBC
:101120003403C0011124992359F09093980145EBA1
:10113000240390011124332339F0309399014ACFCD
:1011400081E080939801F3CF81E08093990142CFB1
:1011500086E0E4E9F1E0DF011D928A95E9F710925B
:101160009201109291011092930108950F931F9391
:10117000CF93DF93C42FD22FFC0182818823C9F043
:1011800040939C010E94621890939B0180939A0166
:1011900080E28C0F883008F050C0C77081E001C039
:1011A000880FCA95EAF7DF91CF911F910F910C94A8
:1011B000620D10919C01141335C080919A01909199
:1011C0009B010E947A188C32914060F5C0E2CD0FED
:1011D0001D17B9F080E2810F883040F4177081E06C
:1011E00001C0880F1A95EAF70E94690DC83048F4CB
:1011F00081E09D2F977001C0880F9A95EAF70E94B1
:10120000620D802F0E945A0DC830B8F4D77081E06B
:1012100001C0880FDA95EAF7DF91CF911F910F9106
:101220000C94690D80E28C0F883038F4C77081E02F
:1012300001C0880FCA95EAF7EFCFDF91CF911F91D8
:101240000F9108950F939C01CB01243F4CE5340787
:1012500059F1A8F4293DFCE53F0701F12A3D4CE591
:101260003407D1F1283D3C4591F406E221EE41EEF0
:1012700068ED7CE50E94B60880E00F910895263F56
:10128000FCE53F07E9F0B0F0273F3C45F9F0FC01F1
:101290008281882339F110929C01EFCF07E225EE7D
:1012A00045EE69ED7CE5E6CF06E221EE40EE64EF27
:1012B0007CE5E0CF07E225EE44EE65EF7CE5DACF92
:1012C00006E221EE42EE66EF7CE5D4CF07E225EEA2
:1012D00046EE67EF7CE5CECF08E221E045EE6AED11
:1012E0007CE5C8CF81E0C9CFCF93DF93EC01FB0150
:1012F0008281882309F419C1C230FCE5DF07C0F1FF
:10130000C6319CE5D90730F09E012B5F3C45293062
:10131000310570F50E948B169093840280938302AE
:10132000C031ECE5DE0709F4CFC008F05BC0C8307F
:101330008CE5D80709F4B6C088F5C430ECE5DE07C3
:1013400009F4A8C0C0F4C2308CE5D80709F49CC0E9
:10135000809183028260C330DC4509F498C080919B
:101360008302909184020E9499160E94860D80E06B
:10137000DF91CF910895809183028061C630ECE5C2
:10138000DE0709F484C0809183028860C730DC45A1
:1013900008F47DC080918302806279C0CC308CE5F6
:1013A000D80709F489C070F4809183028C60CA3038
:1013B000ECE5DE0709F46BC008F478C08091830285
:1013C0008E7F65C0CE308CE5D80709F479C0809156
:1013D00083028B7FCF30DC4508F459C080918302B3
:1013E0008F7E55C0CC3FECE5DE0709F457C030F5E1
:1013F000C3318CE5D80709F46FC078F4C131ECE54E
:10140000DE0709F465C0C231DC4509F0A8CF0E94AF
:10141000860D809183028F773AC0C5318CE5D8075D
:1014200009F462C008F476C0809184028160CB3FE9
:10143000DC4509F094CF8093840291CFC115FDE57E
:10144000DF0709F44DC088F4809184028D7FCE3F80
:101450009CE5D90781F3809184028E7FCF3FDC45E4
:1014600050F3809184028360E6CFC230FDE5DF0750
:1014700009F459C008F444C080E0C330DD4509F0E8
:101480006ECF0E941E176BCF809183028160809384
:10149000830265CF809183028460F9CF80918402BA
:1014A0008260C9CF809183028064F1CF0E94860D53
:1014B000809183028068EBCF809183028D7FE7CF9C
:1014C00080918302877FE3CF809183028F7DDFCF7E
:1014D000809183028F7BDBCF80918302837FD7CF84
:1014E000809184028C7FA7CF8091830282FB992711
:1014F00090F921E0922790FB82F990FB83F9C7CF06
:1015000080918402982F909591708E7F892B90FB0B
:1015100081F991CF0E94860D90918302892F97FBCC
:1015200087F98058B4CF81E0ACCF81E021CFCF9351
:10153000DF93EB0186319C4511F50E94BD159A8120
:10154000992399F08A7A91E009F490E090939D01B3
:10155000811109C089E20E9498150E94091680E055
:10156000DF91CF91089585E3F6CF80919D018111A0
:1015700004C089E20E949F15F0CF85E3FBCF81E094
:10158000EFCF9093A3018093A2010895E091A2016F
:10159000F091A301309721F00190F081E02D0994A2
:1015A00080E00895E091A201F091A301309799F0B5
:1015B00020911401222359F02091830227FF07C0B4
:1015C000DC012C9111962C93119725E02C9302802D
:1015D000F381E02D09940895E091A201F091A30117
:1015E000309739F022E0DC012C930480F581E02D66
:1015F000099408952091A0013091A101281739077D
:1016000071F09093A1018093A001E091A201F0916B
:10161000A301309721F00680F781E02D0994089509
:1016200020919E0130919F012817390771F0909306
:101630009F0180939E01E091A201F091A301309758
:1016400021F00084F185E02D099408950E946E1820
:101650006093B3017093B4018093B5019093B60188
:101660006093AF017093B0018093B1019093B20188
:10167000089585B7806885BF85B7806885BF089560
:10168000089508950C94400B08950C94440B0E9407
:10169000390B8CE696E10E94BE180E94410B0C9417
:1016A000420B81E008950C94510B089508950E9417
:1016B00059180E940A050E940E190C94450B8F922E
:1016C0009F92AF92BF92CF92DF92EF92FF920F93D1
:1016D0001F93CF93DF93CDB7DEB72A970FB6F89459
:1016E000DEBF0FBECDBF0E94550B0E94560B0E945D
:1016F000580581110E94260B55EA852E51E0952E42
:1017000010E000E0A02E802F0E94E1046C01F401A3
:10171000E190F1904F01E816F90609F45CC0809160
:10172000470281FD0E94EA04C7018C259D25B12C4A
:10173000EE24E394F12C9C012E213F21232B09F46C
:1017400044C00E94530B8823A9F0BE82AF82CE20F2
:10175000DF2081E0CD2809F480E088870E946218AC
:101760008160782F9A8789874E815F8168858A8515
:101770000E94150C000F111FF801EB55FE4F8081E0
:101780009181E826F926F182E0820E949C070E945E
:10179000C60A9091A4018917A9F10E94C60A8093F4
:1017A000A4012A960FB6F894DEBF0FBECDBFDF911D
:1017B000CF911F910F91FF90EF90DF90CF90BF904E
:1017C000AF909F908F900C94C602B394EE0CFF1CC8
:1017D000FCE0BF12B0CF0F5F1F4F0530110509F0BD
:1017E00091CF8FEF89838A831B820E946218816068
:1017F000782F9D838C8349815A816B818D810E94D2
:10180000150CC3CF2A960FB6F894DEBF0FBECDBF1E
:10181000DF91CF911F910F91FF90EF90DF90CF90CC
:10182000BF90AF909F908F900895CF92DF92FF92DC
:101830000F931F93CF93DF93CDB7DEB72B970FB6E0
:10184000F894DEBF0FBECDBF7A878B878A01F62E54
:10185000CA84DB84C114D10421F0812F84238F3FFB
:10186000D9F4F1100E94DD151E821D827C2DDD82CF
:10187000CC82A8016F2D8D819E812B960FB6F89496
:10188000DEBF0FBECDBFDF91CF911F910F91FF90B3
:10189000DF90CF900C94B4128091B8019091B9016F
:1018A00001969093B9018093B801DBCFFC01808150
:1018B00091810C946A15CF93C82F882309F48BC0AB
:1018C0008238C1F40E94C60A81FD85C089E30E9466
:1018D00098150E9409162FEF81EE94E02150804068
:1018E0009040E1F700C0000089E30E949F15CF916E
:1018F0000C9409168338A1F40E94C60A80FD6BC0BF
:1019000083E50E9498150E9409162FEF81EE94E05E
:10191000215080409040E1F700C0000083E5E5CF12
:101920008438A1F40E94C60A82FD55C087E40E9453
:1019300098150E9409162FEF81EE94E02150804007
:101940009040E1F700C0000087E4CFCF8CEF8C0F10
:10195000813A90F46C2F80910801909109010E94C6
:101960003717882329F08C2F0E949F150E94091693
:101970008C2F0E949815BBCF80E28C0F883048F4E2
:10198000C77081E001C0880FCA95EAF70E94C015B0
:10199000AECFEBE5EC0FE33040F4F0E0EB57FE4F59
:1019A000808190E0CF910C94FA0AE8E5EC0FE731E2
:1019B00050F4F0E0EE0FFF1FE95AFE4F8081918155
:1019C000CF910C94100BCD3E30F08C2F0E94AE06C0
:1019D000CF910C948107CF910895882309F452C0C8
:1019E000823871F40E94C60A81FF4CC089E30E94CC
:1019F00098150E94091689E30E949F150C940916F8
:101A0000833859F40E94C60A80FF3CC083E50E94D7
:101A100098150E94091683E5EFCF843859F40E9487
:101A2000C60A82FF2FC087E40E9498150E940916FB
:101A300087E4E2CF9CEF980F913AF0F290E2980F92
:101A4000983050F4877091E001C0990F8A95EAF7B9
:101A5000892F0E94C615D2CF9BE5980F933020F4B2
:101A600090E080E00C94FA0A98E5980F973120F402
:101A700090E080E00C94100B8D3E20F00E9408074F
:101A80000C94810708951F93CF93DF93182FEB01D8
:101A90000E945B0C209731F4812FDF91CF911F9131
:101AA0000C94ED0C8FE99FE00197F1F700C0000066
:101AB0002197F0CF70E060E0893311F460E570E0C9
:101AC0000C94430D882321F00E94C0150C94091634
:101AD0000895882321F00E94C6150C9409160895D4
:101AE00090E080E00E94FA0A90E080E00E94100BF3
:101AF0000E94DD150E94ED150E9409160E94A8089B
:101B00000C9481070E94A6150C94700D0E94CD15AF
:101B10000C94820DE92FE295EF70E250EE3070F4F4
:101B2000F0E0EB59FE4D0C940721803F19F020F4B2
:101B3000883E20F481E00895843FE1F380E0089539
:101B4000883EC0F3813FD1F7F5CF93FB882780F91A
:101B500008950E946A150C948A0D8F929F92AF92FD
:101B6000BF92CF92DF92EF92FF920F931F93CF938A
:101B7000DF937C01EB01FC011281058102950F705E
:101B80000E94B615D82E8823A1F0D12E112389F0FA
:101B90008D2F807F803429F080E28C0FD12C88300B
:101BA00040F082E00E9454160E94B61591E0D82EB3
:101BB000D926CD2EC2942FE0C222EC2DF0E0ED58B4
:101BC000FE4D0C940721FD2FFF70BF2E8D2F807FBF
:101BD00019F0B29490EFB9221123A9F0BB2059F06B
:101BE00080E28C0F883010F0C11109C08B2D0E944B
:101BF000C0150E9409168C2F0E945B0C14C08B2DFF
:101C00000E94D015F6CF8C2F0E94ED0CBB2059F00E
:101C100080E28C0F883010F0C11137C08B2D0E94EC
:101C2000C6150E940916EC2DE850FF0B349720F4DE
:101C30000E94C60A0E94C602CE010E948A0D81112E
:101C4000A9C11092B9011092B801DD2009F4B4C104
:101C50000E94B21580FDB0C1F70112820E94AC153E
:101C60000E943814C7010E9400100E94AC15DF9139
:101C7000CF911F910F91FF90EF90DF90CF90BF9089
:101C8000AF909F908F900C9459148B2D0E94D61575
:101C9000C8CF2D2F2F70B22E8D2F807F803219F05C
:101CA000B29480EFB822CC2339F0C13019F111235E
:101CB00061F1002321F19FCF112381F0011106C0B2
:101CC0000E94F0158B290E94620DADCF0130C1F743
:101CD0000E94F0158B290E94F615A5CF011106C0B0
:101CE0000E94FF158B2D0E94690D9DCF013009F4D4
:101CF0009ACFF6CF112329F0063008F094CF8B2D20
:101D0000E2CF053008F08FCFEDCF002359F3C93370
:101D100049F43FEF87EE93E0315080409040E1F787
:101D200000C000008C2F0E94ED0C7DCF8D2F86957A
:101D30008695837061F0813009F075CFCE01937084
:101D4000111102C090E080E00E94100B6CCFCE0118
:101D50009370111102C090E080E00E94FA0A63CFF4
:101D60008C2F112329F00E94AE060E9481075BCFC1
:101D70000E940807FACF8D2F837009F043C011111C
:101D800052CF2C2F229526952770220F220F6C2FD1
:101D90006F70862E912CB12CA12C022E04C0880CC1
:101DA000991CAA1CBB1C0A94D2F760E070E0CB011E
:101DB000C4FF0FC06FE070E080E090E004C0660FE9
:101DC000771F881F991F2A95D2F760957095809587
:101DD00090952D2F269526952370682979298A2993
:101DE0009B29223049F058F4213019F00E94EA135F
:101DF0001ACF0E94D81317CF0E94FC1314CF0E9451
:101E0000D61311CF8695112311F08D2F8170882361
:101E100009F409CF2C2F229526952770220F220F27
:101E20006C2F6F70862E912CB12CA12C022E04C029
:101E3000880C991CAA1CBB1C0A94D2F760E070E0C5
:101E4000CB01C4FF0FC06FE070E080E090E004C001
:101E5000660F771F881F991F2A95D2F76095709596
:101E6000809590952D2F26952695237068297929A0
:101E70008A299B29223049F058F4213019F00E9418
:101E8000AF14D1CE0E949D14CECE0E94C114CBCEF1
:101E90000E941214C8CEED2FEF70BE2E112329F030
:101EA0008E2F0E9438148C2F0ECF8C2F0E94690D1C
:101EB0008B2D0E945914B7CEC23F99F160F4C03FF8
:101EC000D9F0C13F39F1112309F444C0011193CE77
:101ED0008D2F8F7123C0C33F49F1C43FA1F7112358
:101EE00079F1FD2FFF71BF2E8F2F0E94381463E010
:101EF0008B2D0E943F1697CE112341F0053008F03C
:101F000092CE8D2F8F710E947C148DCE063008F0FA
:101F10008ACEF7CF8D2F8F71112359F20E9438147A
:101F200082CE8D2F8F711123C9F3C3CF112329F0D6
:101F30008D2F8F710E94231476CE0E941E1473CEB3
:101F400081E00E945416023008F46DCE82E00E94B7
:101F5000541669CE002359F0C93309F0E3CE2FEFB0
:101F600037EE83E0215030408040E1F7D9CE8D2F0D
:101F70008F719FCF4D2F4F706C2FC7010E94CE02E3
:101F80000E944E1350CE4D2F4F706C2FC7010E94F0
:101F9000D10249CE112319F0011153CE56CE0111B1
:101FA00050CE8091B8019091B901029709F049CEC5
:101FB0008C2F0E945A0D45CEDF91CF911F910F912A
:101FC000FF90EF90DF90CF90BF90AF909F908F9059
:101FD00008950F931F93CF93DF93EC01688179816C
:101FE0008A810E9474158C010E94D3140E94D5131B
:101FF000B801CE01DF91CF911F910F910C94AD0DDF
:10200000CF93DF93EC018B819C81892B29F0888110
:10201000998189238F3F59F4DF91CF910895CE01A3
:102020000E94E90FCE01DF91CF910C945E02CE01A8
:102030000E9483028111F3CF0E94B615882361F3B9
:102040008A81882349F382E0DF91CF910C94541662
:10205000CF93DF9300D000D00F92CDB7DEB70F90B3
:102060000F900F900F900F90DF91CF910895CF9325
:10207000DF9300D000D000D0CDB7DEB726960FB6E4
:10208000F894DEBF0FBECDBFDF91CF9108951F93AF
:10209000CF93DF93C091BA0116E08091BB018C13FE
:1020A00004C0DF91CF911F910895D0E01C9FF001F3
:1020B0001D9FF00D1124E454FE4F40815181628137
:1020C0007381848195810E9437102196C770E5CF76
:1020D0004091EC015091ED016091EE017091EF01A2
:1020E0008091F0019091F1010C9437102091BA0188
:1020F0009091BB0156E0291302C080E0089530E0C2
:10210000529FF001539FF00D1124E454FE4F718152
:10211000761306C07081781303C07281741304C0F3
:102120002F5F3F4F2770E7CF81E008951F93CF9334
:10213000DF938091F101807FA9F48091EE018823E3
:1021400089F08091BA01C091BB016091EC0170915E
:10215000ED01A091EF01B091F001D62FD72316E049
:10216000C81304C0DF91CF911F91089590E010979C
:1021700011F0DF3F19F401968770F2CF189F90019C
:10218000199F300D1124F901E454FE4F418147138A
:10219000F2CF40814613EFCF42814111ECCF438112
:1021A00054814A1B5B0B4C32514028F78091F1015E
:1021B0008F7080618093F101F901EF53FE4F8081B0
:1021C0008F70806180838CEE91E00E940010DF911F
:1021D000CF911F910C9447108F929F92AF92BF9214
:1021E000CF92DF92EF92FF920F931F93CF93DF93E3
:1021F000CDB7DEB761970FB6F894DEBF0FBECDBF87
:102200008C0185E0F801DE011D9601900D928A9502
:10221000E1F7D801EC901196FC9011971296CC90B2
:1022200012978CEEA82E81E0B82E4091EF015091CC
:10223000F0014115510509F475C19091EC0120910F
:10224000ED01892F82238F3F09F46CC113968D9085
:102250009C901497D090EE01F401E41BF50BAF01B4
:10226000DD2009F40AC18091F101382F307F4C3212
:10227000514008F0C1C0311189C0DC2C2F1126C09B
:102280009E1124C0C11022C08F7080618093F10123
:102290000E946810C5010E9400108091F101D801D0
:1022A00015968C938D2D61960FB6F894DEBF0FBEF8
:1022B000CDBFDF91CF911F910F91FF90EF90DF90F5
:1022C000CF90BF90AF909F908F900895811491040C
:1022D00029F08F2D8E218F3F09F043C180E080FFD0
:1022E00015C04C2D6F2D8E2D0E947610882371F015
:1022F0008CEE91E00E94001086E0ECEEF1E0DF0150
:102300001D928A95E9F70E9468103EC0892829F03D
:102310008F2D8E218F3F09F021C180E0B82FB17041
:10232000AB2E80FF29C04C2D6F2D8E2D0E94761074
:10233000B82E811121C0ED86FE868D859E850E9476
:102340006A15292F22952F70223050F0243078F40E
:102350009F7051F0F8019581907F31F4DB2CA2CF72
:102360009F7011F08823D1F3805E8830B8F3C801E4
:102370000E940010BA2CF2CFCC2009F493CF8091A8
:10238000F10181608093F101D12C8CCF2F1105C018
:102390009E1103C0CC2009F48DC0ED86FE868D858C
:1023A0009E850E94A90D882319F1CC2009F1809106
:1023B000F101803270F02091EC013091ED0138870D
:1023C0002F8319869B868A868C87CE0107960E946A
:1023D000001086E0F801ACEEB1E001900D928A9514
:1023E000E1F70E9496100E946810DD24D3945ACF22
:1023F000C8010E940010F9CF311112C0782D998ABE
:10240000888AA7016C2D89890E9428108CEE91E0A2
:102410000E94001086E0F50111928A95E9F773CFCA
:102420002F110FC09E110DC0C1100BC015968C93BB
:10243000C8010E94001086E0F50111928A95E9F723
:1024400031CFED86FE868D859E850E94A90D88235D
:1024500079F2CC2069F28091F101803208F4B9CF91
:102460002091EC013091ED013A8329831B829D82FA
:102470008C828E83CE010196AACF4C32514008F057
:1024800043C0DC2CCC2009F4B3CF2F112CC09E11FB
:102490002AC08091F10180FD1DC0982F907FD1F05E
:1024A00015968C931597903F39F0982F907F905FF9
:1024B0008F70892B15968C93C8010E94001086E0BE
:1024C000F801ACEEB1E001900D928A95E1F70E941F
:1024D0006810E8CE86E0F801ACEEB1E001900D9214
:1024E0008A95E1F7DFCEED86FE868D859E850E947A
:1024F000A90D81116ECF8091F10181608093F1016E
:10250000C8010E940010CECE782D998A888AA70132
:102510006C2D89890E94281086E0F50111928A9518
:10252000E9F7D5CFCC2009F463CFED86FE868D8503
:102530009E850E94A90DD82E882309F459CF86E0E4
:10254000F801ACEEB1E001900D928A95E1F78CEEC6
:1025500091E00E94560C0E949610B9CF81E08C2524
:10256000DDCE81E08C25BBCE1F93CF93DF93CDB71B
:10257000DEB72C970FB6F894DEBF0FBECDBF4F83EA
:10258000588769877A878B879C87CE0107960E9438
:10259000EC10882369F08A859B85892B39F04F815F
:1025A0005885842F85238F3F09F071C016E05FC0E6
:1025B00086E0FE013796DE01119601900D928A9514
:1025C000E1F78A859B85892B89F38F8198858923FB
:1025D0008F3F61F32091BB0130E0C9010196877004
:1025E00099274091BA014817190671F40E94860D87
:1025F0001092BB011092BA0186E0ECEEF1E0DF012F
:102600001D928A95E9F7D2CF96E0929FD001939FD1
:10261000B00D1124A454BE4FFE01319601900D92CD
:102620009A95E1F78093BB010E944710BFCF819F2D
:10263000C001112484549E4F0E94EC108823E9F0BD
:10264000E091BA011E9FF0011124E454FE4F408135
:10265000518162817381848195810E9437108091BC
:10266000BA0190E00196877099278093BA01809112
:10267000BA019091BB018913DACF2C960FB6F8946A
:10268000DEBF0FBECDBFDF91CF911F910895698549
:102690007A858B859C850E94371088CFEF92FF92B8
:1026A0000F931F93CF93DF938C01892B81F0F12C33
:1026B000EE24E394E8012196F8018491843770F4C4
:1026C000843008F05FC08130B1F08230A1F1DF9139
:1026D000CF911F910F91FF90EF900895853709F4E6
:1026E0004CC008F43DC09CE7980F903780F78F7777
:1026F0000E94ED0C49C00E5F1F4FFE01849190E2D5
:10270000980F983060F48770FE2D01C0FF0F8A95F6
:10271000EAF78F2F0E94E0150E94091602C00E945E
:102720005B0C8F2D815030F2EFE9FFE03197F1F72C
:1027300000C00000F7CF0E5F1F4FFE01849190E2B2
:10274000980F983050F48770FE2D01C0FF0F8A95C6
:10275000EAF78F2F0E94E615DFCF0E94ED0CE1CF44
:102760000E5F1F4FFE01C491C150D8F28FE99FE068
:102770000197F1F700C00000F7CF0E5F1F4FFE0179
:10278000F490CFCF0E945B0C8E01CBCF08950C94B8
:10279000C6130E94C71360931E0270931F0280939A
:1027A0002002909321020C94700D08950C94C9138B
:1027B0000F931F9300911E0210911F02209120027F
:1027C00030912102602B712B822B932B1F910F9143
:1027D0000C94C9130F931F9300911E0210911F02B6
:1027E00020912002309121026023712382239323C0
:1027F0001F910F910C94C9130F931F9300911E0208
:1028000010911F0220912002309121026027712730
:10281000822793271F910F910C94C9130C94C61310
:102820000C940E140E94101460931A0270931B02F1
:1028300080931C0290931D020C94700D60E070E078
:10284000CB010C9412140F931F9341E050E060E011
:1028500070E08A019B0104C0000F111F221F331F6B
:102860008A95D2F7C901B8011F910F910C941214E7
:102870000F931F9341E050E060E070E004C0440F0C
:10288000551F661F771F8A95D2F780911A02909183
:102890001B02A0911C02B0911D028A019B01082B12
:1028A000192B2A2B3B2BC901B8011F910F910C94B6
:1028B00012140F931F9341E050E060E070E004C0F9
:1028C000440F551F661F771F8A95D2F7CB01BA01B7
:1028D000609570958095909500911A0210911B0259
:1028E00020911C0230911D026023712382239323C7
:1028F0001F910F910C9412140F931F9341E050E01D
:1029000060E070E004C0440F551F661F771F8A9572
:10291000D2F780911A0290911B02A0911C02B091F3
:102920001D028A019B01082719272A273B27C90175
:10293000B8011F910F910C9412140F931F930091E3
:102940001A0210911B0220911C0230911D02602B73
:10295000712B822B932B1F910F910C9412140F93B8
:102960001F9300911A0210911B0220911C023091BA
:102970001D0260237123822393231F910F910C94D6
:1029800012140F931F9300911A0210911B022091B1
:102990001C0230911D0260277127822793271F9107
:1029A0000F910C94121408952CE0929F800D112425
:1029B000982F977041E001C0440F9A95EAF78695E9
:1029C0008695869595E0899FF0011124EE50FE4F83
:1029D00090E080E070E05191DF0111979B01082E9B
:1029E00002C0369527950A94E2F721702195252794
:1029F000242325272C9301968530910561F70895AE
:102A00002CE0929F800D1124982F977086958695C3
:102A1000869525E0829FF0011124EE50FE4F50E094
:102A200040E080E0219130E0092E02C036952795E4
:102A30000A94E2F721703327042E01C0220F0A9472
:102A4000EAF7822B4F5F5F4F4530510559F70895E4
:102A5000BF92CF92DF92EF92FF920F931F93CF938B
:102A6000DF938C01C0901A02D0901B02E0901C02F0
:102A7000F0901D0280911E0290911F02A0912002F1
:102A8000B0912102C82AD92AEA2AFB2ACFE1D0E054
:102A9000BC2ED701C6010C2E04C0B695A7959795FC
:102AA00087950A94D2F780FD0EC0219788F7B12C44
:102AB0008B2DDF91CF911F910F91FF90EF90DF90C1
:102AC000CF90BF900895B8018C2F0E94EE0201971D
:102AD00061F3EECFCF93DF93EC010E942815BE0186
:102AE000DF91CF910C94EE021F93CF93DF93EB0114
:102AF0009091B701992331F0CB01DF91CF911F91D4
:102B00000C946A15882379F0CB010E942815182FA0
:102B1000682FCE010E94D414BE01812FDF91CF9186
:102B20001F910C94EE02CB010E940015182FF4CFD8
:102B3000682F80910801909109010C94B717682FB4
:102B400080910801909109010C94C21780910801AD
:102B5000909109010C94CD1780912202859585955D
:102B600085950895809122028770089590912202A0
:102B7000977081E009F480E00895809146020895FD
:102B800090914602892B80934602089580959091FA
:102B900046029823909346020895109246020895A3
:102BA00090914502892B80934502089580959091DC
:102BB0004502982390934502089510924502089586
:102BC00090914402892B80934402089580959091BE
:102BD0004402982390934402089510924402089569
:102BE00080912302089508950C94F3159091230287
:102BF000981721F0809323020C94F4150895809186
:102C00002302882329F01092230280E00C94F4150B
:102C10000895E0910801F0910901809146028083B6
:102C2000E0910801F0910901808190914502892B82
:102C30008083E0910801F091090180819091440224
:102C4000892B808390912302992381F0E0910801E0
:102C5000F09109018081892B8083809108019091F6
:102C600009010E94231781110E94FF15809108011C
:102C7000909109010C94D20A08950C943C1698E0A6
:102C8000899F90011124622B609322020E943814C4
:102C9000809122028595859585950C943D1610921C
:102CA000220280E00C943D169091220280958923A7
:102CB00080932202282F277071F4282F082E000CF1
:102CC000330B9217130639F08595859585950E94EB
:102CD00059140C944F16089580E0089590E080E018
:102CE0000E94292121E08B3E9E4F09F020E0822F97
:102CF000089582E090E00C942121682F82E090E01A
:102D00000C942F2183E090E00C942121682F83E024
:102D100090E00C942F21CF9384E090E00E94212139
:102D2000C82F81E290E00E942121982F8C2FCF9113
:102D30000895CF93C92F682F84E090E00E942F213F
:102D40006C2F81E290E0CF910C942F21AB01BC015C
:102D50008FE090E00C944121AB01BC0183E190E055
:102D60000C94412160E070E0CB010C94AC1660E063
:102D700070E0CB010E94A6160C94B2166BEE7EEFAB
:102D800090E080E00E944D2160E082E090E00E94AF
:102D90002F2160E083E090E00E942F2110921E021C
:102DA00010921F02109220021092210260E084E033
:102DB00090E00E942F2160E081E290E00E942F21AC
:102DC00060E085E090E00E942F2160E086E090E0E6
:102DD0000E942F216FEF87E090E00E942F2140E0BA
:102DE00050E0BA0188E090E00E94412160E08DE06F
:102DF00090E00E942F2140E050E0BA0188E190E08D
:102E00000E94412160E087E190E00E942F2140E094
:102E100050E0BA018CE190E00E94412160E080E244
:102E200090E00E942F2140E050E0BA0188E190E05C
:102E30000E9441210C94B7160C94BE16682F8EE0A8
:102E400090E00C942F21FC0132968091140188238C
:102E500021F0809183029EE187FF96E080E091500F
:102E600008F4089521912223D1F38F5FF8CF6623D0
:102E700001F1209114012223F1F02091830227FF18
:102E80001AC0462F4695469546954E3190F4677088
:102E900021E030E002C0220F331F6A95E2F7840F71
:102EA000911DFC01828190E02823392381E0232BAE
:102EB00069F480E00895FC01329608962191261766
:102EC00021F0E817F907D1F7F4CF81E008959C01CC
:102ED000FC0132969FEF80E04191461751F09F3FF1
:102EE00019F4411101C0982F8F5F8630A9F79F3FD9
:102EF00009F40895290F311D97FD3A95F901628370
:102F00000895FC01329608962191261303C0DF0133
:102F100011971C92E817F907B9F70895E62FE6957F
:102F2000E695E695EE3168F4E80FF92FF11D67702C
:102F300021E030E001C0220F6A95EAF78281822BFE
:102F400082830895E62FE695E695E695EE3170F4D6
:102F5000E80FF92FF11D677021E030E001C0220F6A
:102F60006A95EAF72095828128232283089520918B
:102F70001401222329F02091830227FD0C948E173F
:102F80000C94671720911401222329F020918302C9
:102F900027FD0C94A2170C948117FC0132968091A6
:102FA0001401882351F08091830287FF06C08EE1CF
:102FB000DF011D928A95E9F7089586E0F9CF08951B
:102FC00008950C94E01780918902843049F10E94A1
:102FD000E11780E00E94C6021092480288E190E06A
:102FE00020E40FB6F894A895809360000FBE20935C
:102FF000600083B7817F846083BF83B7816083BFB4
:103000007894889583B78E7F83BF0FB6F894A89580
:1030100080916000886180936000109260000FBE14
:1030200008950895CF930E94DF170E9458050E94CB
:103030001118C0E08C2F0E94E104892B31F4CF5F7E
:10304000C530C1F780E0CF91089581E0FCCF0895AD
:103050000C9427180E94860D0E94C60A0E94C60280
:103060000C9428181F921FB61F9211248F939F93C0
:10307000AF93BF9380914802811113C080917F026A
:1030800090918002A0918102B09182024196A11D8F
:10309000B11D80937F0290938002A0938102B09330
:1030A0008202BF91AF919F918F911F901FBE1F9081
:1030B000189582E084BD93E095BD9AEF97BD80930B
:1030C0006E0008952FB7F89480917F02909180024E
:1030D000A0918102B09182022FBF08952FB7F8947A
:1030E00060917F02709180028091810290918202B2
:1030F0002FBF08959C014FB7F89480917F02909163
:103100008002A0918102B09182024FBF821B930B7B
:10311000089578941F921FB61F9211248F939F9346
:10312000AF93BF9380917F0290918002A091810222
:10313000B09182020196A11DB11D80937F029093F0
:103140008002A0938102B0938202BF91AF919F91C0
:103150008F911F901FBE1F90189587E797E7909358
:1031600001088093000888E19AE00FB6F894A895CA
:10317000809360000FBE90936000FFCF9093890111
:10318000809388010895AF92BF92CF92DF92EF9221
:10319000FF920F931F93CF93C0E0CC24C394D12C04
:1031A000E82EF12C8C2F0E94E1045C0110E000E07D
:1031B000C601002E02C0880F991F0A94E2F78A21E7
:1031C0009B21892B99F40F5F1F4F0C30110581F75C
:1031D000CF5FC53039F780E0CF911F910F91FF90FD
:1031E000EF90DF90CF90BF90AF900895602F7C2F2D
:1031F00080E00E94D202E816F90629F781E0ECCFC0
:10320000CF93C82F8CE20E94C318882321F08C2F03
:10321000CF910C94C31880E0CF910895CF930E9472
:103220006E16811102C00E941C17C5E608C00E94DC
:1032300058058FE39CE90197F1F700C00000C150E9
:10324000B1F789E20E94001981110BC18AE20E9444
:10325000001981110E941C1785E00E94001981113C
:103260000E94AD180E9479168093470287E00E9461
:103270000019882371F08BE10E940019882309F45A
:10328000CDC090914702892F8D7F91FF82608093FE
:103290004702809147020E947D160E948B169093F0
:1032A00084028093830280EE0E940019882341F0FB
:1032B00090918302892F8E7F90FF8160809383029B
:1032C00089E30E940019882341F090918302892F9D
:1032D0008D7F91FF82608093830282EE0E940019AD
:1032E000882341F090918302892F8B7F92FF846025
:1032F0008093830286EE0E940019882341F090910A
:103300008302892F877F93FF88608093830283EEF7
:103310000E940019882341F090918302892F8F7EAB
:1033200094FF80618093830285E30E9400198823C3
:1033300041F090918302892F8F7D95FF8062809369
:10334000830281E30E940019882341F09091830257
:10335000892F8F7B96FF80648093830281E10E9496
:103360000019882341F090918302892F97FB87F9F8
:1033700080588093830280918302909184020E94FE
:10338000991687E20E940019C82F8EE10E94001949
:103390008111C2608FE10E9400198111C46080E236
:1033A0000E9400198111C86081E20E9400198111F8
:1033B000C06182E20E9400198111C06283E20E9412
:1033C00000198111C06484E20E940019882309F465
:1033D00042C0C0688C2F0E9486166C2F70E090E06F
:1033E00080E00E94D61360911A0270911B028091B6
:1033F0001C0290911D020E9410148FE00E9400197F
:10340000882319F081E00E941E1785E10E940019AF
:10341000882339F180E0CF910C941E178EE00E9432
:103420000019882339F090914702892F8B7F92FFF2
:1034300084602DCF80E10E9400199091470288237B
:1034400029F0892F877F93FF886021CF892F8E7F76
:1034500090FF81601CCFC111BDCF0E948216682FE2
:10346000BDCFCF910895809169020895CF93DF93E6
:1034700000D00F92CDB7DEB790918902943019F544
:1034800089837B836A8382E08093E9008FEF909148
:10349000E800815095FD06C095ED9A95F1F7000082
:1034A0008111F5CF8091E80085FF0DC050E040E02C
:1034B00063E070E0CE0101960E94621C8091E800FA
:1034C0008E778093E8000F900F900F90DF91CF914F
:1034D0000895BC0184E00C94361ABC0183E00C947E
:1034E000361A9C0182E08093E9009FEF8091E8000A
:1034F000915085FD06C085ED8A95F1F70000911188
:10350000F5CF8091E80085FF0CC050E040E066E018
:1035100070E0C9010E94621C8091E8008E77809360
:10352000E8000895CF93DF93EC0180911401882384
:10353000B1F18091830287FF32C060E282E0809324
:10354000E9008FEF9091E800815095FD06C095ED60
:103550009A95F1F700008111F5CF8091E80085FF81
:103560001BC08091140170E050E040E0811104C064
:1035700050E040E068E070E0CE010E94621C809163
:10358000E8008E778093E80080E2FE01A9E4B2E0D3
:1035900001900D928A95E1F7DF91CF91089568E04F
:1035A00081E0CDCF80918802811109C00E94F21D77
:1035B0000E944F1E8091E20084608093E200089593
:1035C00010928802089508950895089542E061ECEC
:1035D00081E00E946E1D42E261EC82E00C946E1D5F
:1035E00080918B02833009F45FC030F48130C1F1E7
:1035F000823009F49BC008958A3009F487C08B306B
:1036000009F46DC0893009F04EC080918A02813280
:1036100009F049C080918E0290918F02029708F0C4
:1036200042C08091E800877F8093E8008091E800A5
:1036300082FF35C09091F3008091F200029729F447
:103640008091F1008B7F813021F48091F100809393
:1036500069028091E8008B778093E8000C94A21DAA
:1036600080918A02813AF9F48091E800877F809303
:10367000E80080918E0290918F02892B61F460E2C4
:1036800089E492E070E00E94B11C8091E8008B77A1
:103690008093E800089560E090E080E0F3CF8091AF
:1036A00089028111C3CF089580918A02813AD9F7A6
:1036B00080918E0290918F02892BA9F78091E8006A
:1036C000877F8093E8008091E80080FFFCCF8091A5
:1036D00014018093F1008091E8008E77BDCF809136
:1036E0008A02813201F780918E0290918F02892B9C
:1036F000D1F68091E800877F8093E8000E94A21DA8
:1037000080918C02809314010C94860D80918A0222
:10371000813249F68091E800877F8093E8000E941B
:10372000A21D80918D0280936A02089580918A0281
:10373000813A09F0B8CF8091E800877F8093E80054
:103740008091E80080FFFCCF80916A02C2CF84B7ED
:10375000877F84BF0FB6F894A89580916000886138
:1037600080936000109260000FBE80E890E00FB67A
:10377000F89480936100909361000FBE0E94470B04
:103780000E94F21D0E944F1E8091E200846080938F
:10379000E20078940E94D8200E94570B8AE091E0C2
:1037A0000E94C10A809189028530A9F00E945F0BB6
:1037B0000E94550B0E94560BF5CF0E94E317809193
:1037C0008702882341F00E941218882321F00E946A
:1037D0004C1C0E94860D80918902853071F30E94F5
:1037E0002A18E4CF0C94F41B292F332723303105FA
:1037F00019F168F42130310509F444C02230310553
:1038000009F445C090E080E030E020E025C021329E
:10381000310549F122323105A9F780E490E02BE52A
:1038200033E061157105C1F086EB90E025EA32E0E6
:103830006130710589F0E6CF99278130910581F0DB
:10384000009729F00297F1F6E4E1F2E002C0E4E526
:10385000F2E0849190E09F01FA0131832083089582
:10386000E2E3F2E0F6CF89E090E02AE632E061158B
:10387000710591F389E090E023E832E06130710551
:1038800059F3C0CF82E190E023E932E0E5CF8BE34A
:1038900090E028E532E0E0CF80E189BD82E189BD9A
:1038A00009B400FEFDCF8091D8008F7D8093D800B1
:1038B0008091E00082608093E0008091E00081FDD3
:1038C000FCCF0895AF92BF92CF92DF92FF920F93F9
:1038D0001F93CF93DF936C01EB018A010E94C11DFE
:1038E000F82E811123C00115110539F0F8018081EE
:1038F0009181C81BD90BC80ED91EB12CA12C2097C1
:10390000A9F08091E80085FD22C08091E8008E77C3
:103910008093E80001151105A1F0F80180819181E3
:10392000A80EB91EB182A08285E0F82E8F2DDF91FE
:10393000CF911F910F91FF90DF90CF90BF90AF90EC
:1039400008950E94C11D8823D1F2F82EEFCFF60111
:1039500081916F018093F1002197FFEFAF1ABF0AA9
:10396000CECFFC018091900290919102861797072B
:10397000A0F06115710529F49091E8009E7790936D
:10398000E80090E06115710551F4911108C0809133
:10399000E80082FF34C080E00895BC01F2CF80913E
:1039A00089028823C1F18530C1F18091E80083FD4F
:1039B00030C08091E80082FDEACF8091E80080FF6E
:1039C000E1CF8091F3002091F200382F611571054D
:1039D00019F02830310558F091E02830310509F010
:1039E00090E02091E8002E772093E800CBCF8191E2
:1039F0008093F100615071092F5F3F4FE7CF8091B5
:103A00008902882341F0853041F08091E80083FFEE
:103A1000BECF81E0089582E0089583E00895FC011F
:103A2000809190029091910286179707A0F06115FE
:103A3000710529F48091E8008E778093E80090E08A
:103A40006115710551F4911108C08091E80082FF61
:103A500035C080E00895BC01F2CF809189028823AF
:103A6000C9F18530C9F18091E80083FD31C08091B2
:103A7000E80082FDEACF8091E80080FFE1CF8091ED
:103A8000F3002091F200382F6115710519F02830EC
:103A9000310558F091E02830310509F090E080912F
:103AA000E8008E778093E800CBCF84918093F1007B
:103AB0003196615071092F5F3F4FE6CF80918902A7
:103AC000882341F0853041F08091E80083FFBDCF2D
:103AD00081E0089582E0089583E00895982F97305B
:103AE00028F08F708093E90081E008959093E900B9
:103AF000242F762F50E0981731F07091EC00209130
:103B0000ED005091F00021FD02C09F5FE8CF3091A1
:103B1000EB003E7F3093EB003091ED003D7F309322
:103B2000ED003091EB0031603093EB007093EC00CE
:103B30002093ED005093F0002091EE0027FDE5CF9B
:103B400080E0089580918A0287FF13C08091E80089
:103B500082FF06C08091E8008B778093E80004C064
:103B6000809189028111F2CF089580918902882382
:103B7000D9F38091E80080FFF8CF8091E8008E773C
:103B8000ECCF2091E4003091E50095E6A901209169
:103B9000EC00822F817020FF06C08091E80080FF3A
:103BA00006C080E008952091E80022FD1AC08091AF
:103BB0008902882389F0853089F08091EB0085FDAA
:103BC0000FC02091E4003091E50042175307F9F24D
:103BD0009150E1F684E0089582E0089583E008952D
:103BE00081E008950E94601E0E94681EE0EEF0E0F1
:103BF000808181608083E8EDF0E080818F77808331
:103C000019BCA7EDB0E08C918E7F8C9380818F7E64
:103C100080831092880208950F931F93CF93DF93B0
:103C20000E94601E0E94681EC8EDD0E088818F77D8
:103C3000888388818068888388818F7D888319BC88
:103C400010928902109285021092870210928602C9
:103C500000EE10E0F80180818B7F80838881816095
:103C6000888342E060E080E00E946E1DE1EEF0E0BB
:103C700080818E7F8083E2EEF0E0808181608083AE
:103C8000808188608083F80180818E7F8083888135
:103C900080618883DF91CF911F910F910895E8EDA6
:103CA000F0E080818F7E8083E7EDF0E080818160AD
:103CB000808384E082BF81E0809388020C940C1E94
:103CC000E8EDF0E080818E7F80831092E20008951D
:103CD0001092DA001092E10008951F920F920FB631
:103CE0000F9211242F933F934F935F936F937F9382
:103CF0008F939F93AF93BF93EF93FF938091E100D6
:103D000082FF0BC08091E20082FF07C08091E1003A
:103D10008B7F8093E1000E94D7208091DA0080FFA2
:103D200019C08091D80080FF15C08091DA008E7F85
:103D30008093DA008091D90080FF96C080E189BD30
:103D400082E189BD09B400FEFDCF81E08093890244
:103D50000E94D21A8091E10080FF19C08091E20098
:103D600080FF15C08091E2008E7F8093E2008091F9
:103D7000E20080618093E2008091D80080628093AD
:103D8000D80019BC85E0809389020E94E41A8091D2
:103D9000E10084FF2BC08091E20084FF27C080E116
:103DA00089BD82E189BD89B5982F917080FFFBCFD5
:103DB0008091D8008F7D8093D8008091E1008F7E24
:103DC0008093E1008091E2008F7E8093E2008091F9
:103DD000E20081608093E20080918502882309F4EB
:103DE00049C084E0809389020E94E51A8091E10035
:103DF00083FF29C08091E20083FF25C08091E1000C
:103E0000877F8093E10082E080938902109285028F
:103E10008091E1008E7F8093E1008091E2008E7FAF
:103E20008093E2008091E20080618093E20042E0B2
:103E300060E080E00E946E1D8091F00088608093B9
:103E4000F0000E94E31AFF91EF91BF91AF919F9113
:103E50008F917F916F915F914F913F912F910F9033
:103E60000FBE0F901F90189519BC109289020E94E6
:103E7000E01A70CF8091E30087FD93E09093890270
:103E8000B3CF1F920F920FB60F9211242F933F932F
:103E90004F935F936F937F938F939F93AF93BF9352
:103EA000CF93DF93EF93FF93D091E900DF70809180
:103EB000EC00C82FC17080FDC0E81092E90080912D
:103EC000F000877F8093F00078940E94851F109205
:103ED000E9008091F00088608093F000CD2BCF70D6
:103EE000C093E900FF91EF91DF91CF91BF91AF9126
:103EF0009F918F917F916F915F914F913F912F9102
:103F00000F900FBE0F901F9018951F93CF93DF93C4
:103F1000CDB7DEB7AA970FB6F894DEBF0FBECDBF00
:103F20008AE892E02091F100FC012193CF01F2E0B8
:103F300082399F07B9F70E94F01A8091E80083FF49
:103F40001EC180918A0290918B029A3008F017C1AD
:103F5000E92FF0E0ED57FE4D0C940721803899F0E1
:103F6000823809F00CC180918E028F70873008F082
:103F700006C18093E9008091EB0085FB882780F9DA
:103F80001092E90006C080918602909187029111FB
:103F900082609091E800977F9093E8008093F10011
:103FA0001092F1008091E8008E77E5C0882309F433
:103FB000D3C0823009F0E3C080918C028111D6C059
:103FC00080918E028F702FEF280F263008F0D7C017
:103FD0008093E9002091EB0020FFC8C0933031F4BA
:103FE0008091EB0080628093EB00C0C09091EB0069
:103FF00090619093EB0021E030E001C0220F8A95A0
:10400000EAF72093EA001092EA008091EB008860C2
:10401000EACF8111B4C010918C021F778091E30028
:104020008078812B8093E3008091E800877F8093E4
:10403000E8000E94A21D8091E80080FFFCCF8091E3
:10404000E30080688093E30082E0111183E08093B5
:10405000890295C08058823008F091C080918C020E
:1040600090918D028C3D23E09207A1F583E08A8335
:104070008AE289834FB7F894DE01139620E03EE090
:1040800051E2E32FF0E050935700E49120FF03C08A
:10409000E295EF703F5FEF708E2F90E0EA30C0F056
:1040A000C7968D939D932F5F243159F74FBF809111
:1040B000E800877F8093E8006AE270E0CE01019615
:1040C0000E94B11C8091E8008B778093E80057C074
:1040D000C096E7CF60918E0270918F02AE014F5F64
:1040E0005F4F0E94F21BBC01892B09F448C09091DC
:1040F000E800977F9093E80089819A810E940F1DC4
:10410000E1CF8038E1F58091E800877F8093E80077
:10411000809185028093F10045CF811130C090914C
:104120008C02923060F58091E800877F8093E800F0
:10413000909385020E94A21D80918502882311F030
:1041400084E005C08091E30087FDFACF81E0809391
:1041500089020E94E61A13C080918C02813079F4A2
:1041600081E0933009F080E0809387021092E900AB
:104170008091E800877F8093E8000E94A21D8091D3
:10418000E80083FF0AC08091E800877F8093E80001
:104190008091EB0080628093EB00AA960FB6F894B2
:1041A000DEBF0FBECDBFDF91CF911F91089508955F
:1041B000CF93809189028823A1F0C091E900CF704C
:1041C0009091EC00892F817090FD80E8C82B1092AF
:1041D000E9008091E80083FD0E94851FCF70C093A5
:1041E000E900CF91089597FB072E16F4009407D0AD
:1041F00077FD09D00E940D2107FC05D03EF4909573
:1042000081959F4F0895709561957F4F0895EE0FAA
:10421000FF1F0590F491E02D0994AA1BBB1B51E1EF
:1042200007C0AA1FBB1FA617B70710F0A61BB70B26
:10423000881F991F5A95A9F780959095BC01CD01CB
:104240000895F999FECF92BD81BDF89A992780B55E
:104250000895A8E1B0E042E050E00C945521262FEB
:10426000F999FECF92BD81BDF89A019700B402166C
:1042700039F01FBA20BD0FB6F894FA9AF99A0FBE1A
:1042800008950396272F0E9430210E942F21252F69
:104290000E943021242F0C9430210196272F0E9458
:1042A00030210C942F21DC01CB01FC01F999FECFC8
:1042B00006C0F2BDE1BDF89A319600B40D924150AE
:1042C0005040B8F70895F894FFCF950D950D9E0DC9
:1042D0009E0DA00D9E0D9E0D9E0D950D950DA50D8F
:1042E0009E0D9E0DA50DE30DE30D490E490E960E94
:1042F000B00E130E130EBB0E4B0F5C0F5C0FBA0FFC
:10430000130E130EC30FAE1FD61FBF20D61FBF2024
:0A43100009202A20BF2081208D2003
:10431A002808641E140A321E2402331A921A711AC9
:10432A006D1A691A01E200E900EA00B500B600B7A1
:10433A0000CD008301CC008A01920194012102235D
:10434A000224022502260227022A02B300B4006FC1
:10435A00007000818283C63497669091F6F73133F4
:10436A0036329392F49435E200E900EA00B500B6D9
:10437A0000B700CD008301CC008A0192019401218B
:10438A0002230224022502260227022A02B300B4CB
:08439A00006F007000818283B6
:00000001FF
